:100000000C94DB000C94F8000C94F8000C94F800AD
:100010000C94F8000C94F8000C94F8000C948D0FDC
:100020000C94F8000C94F8000C94F8000C94251033
:100030000C94F8000C94F8000C945F0D0C94F800EC
:100040000C94F8000C94F8000C94F6040C944A05F7
:100050000C94F8000C94F8000C94F8000C94F80040
:100060000C94F8000C94F800084AD73B3BCE016E84
:1000700084BCBFFDC12F3D6C74319ABD56833DDAFF
:100080003D00C77F11BED9E4BB4C3E916BAAAABE0E
:10009000000000803F05A84CCDB2D44EB93836A937
:1000A000020C50B9918688083CA6AAAA2ABE000074
:1000B00000803F6E616E00696E660000407A10F34A
:1000C0005A00A0724E18090010A5D4E80000E87686
:1000D00048170000E40B54020000CA9A3B000000DD
:1000E000E1F505000080969800000040420F0000F6
:1000F00000A08601000000102700000000E80300B7
:100100000000006400000000000A00000000000180
:1001100000000000002C76D888DC674F0823DFC180
:10012000DFAE59E1B1B796E5E3E453C63AE651993B
:100130007696E8E6C28426EB898C9B62ED407C6F64
:10014000FCEFBC9C9F40F2BAA56FA5F490055A2A1B
:10015000F75C936B6CF9676DC11BFCE0E40D47FE27
:10016000F520E6B500D0ED902E030094357705001C
:1001700080841E080000204E0A000000C80C3333A3
:1001800033330F986E12831141EF8D2114893BE6B2
:100190005516CFFEE6DB18D1844B381BF77C1D903B
:1001A0001DA4BBE424203284725E228100C9F124A4
:1001B000ECA1E53D270011241FBECFEFD8E0DEBF44
:1001C000CDBF13E0A6E0B1E001C01D92AA32B10795
:1001D000E1F711E0A0E0B1E0E2EBF6E302C0059048
:1001E0000D92A630B107D9F70E94FA000C94571B64
:1001F0000C9400002F923F924F925F926F927F92E9
:100200008F929F92AF92BF92CF92DF92EF92FF9226
:100210000F931F93DF93CF9300D000D0CDB7DEB7FD
:100220008AE097EDA3EABDE38093AE029093AF021C
:10023000A093B002B093B1028AE999E9A9E1BEE3C3
:100240008093B2029093B302A093B402B093B5022C
:100250000F2EF0E04F2EF0E05F2EF0E06F2EF0E07A
:100260007F2EF02D4092020350920303609204030C
:10027000709205038BE391E04DEC5CEC6CE47FE362
:100280000DEC1CEC2CEC3DE30F2EFDECCF2EFCEC2A
:10029000DF2EFCECEF2EFEE3FF2EF02D0F2EFEE303
:1002A0008F2EFBE39F2EF0EEAF2EFDE3BF2EF02D41
:1002B0000E94F30B6091B2027091B3028091B4027C
:1002C0009091B50223E33AE845EE5BE30E94E71024
:1002D0004B015C0187E591E04DEC5CEC6CE47FE365
:1002E0000DEC1CEC2CEC3DE30E94F30B8090020320
:1002F00090900303A0900403B090050383E291E083
:100300004DEC5CEC6CE47FE30DEC1CEC2CEC3DE381
:100310000E94F30B4092170150921801609219014C
:1003200070921A0140921F015092200160922101A7
:10033000709222018091020390910303A091040323
:10034000B09105038093130190931401A0931501BC
:10035000B09316010E94EA0E15C080E00E94820E42
:10036000B80117FD10C181E00E94820EB601D7FCD2
:1003700012C182E00E94820EB701F7FC14C183E033
:100380000E94820EC0901701D0901801E0901901D0
:10039000F0901A016091AE027091AF028091B002AC
:1003A0009091B10221ED30E941EF5CE30E94E7104A
:1003B0008B019C018BE391E0B701A6010E94320CF6
:1003C00020E030E040E450E40E9468136093530161
:1003D000709354018093550190935601C0901F0172
:1003E000D0902001E0902101F09022016091B202B2
:1003F0007091B3028091B4029091B50223E33AE880
:1004000045EE5BE30E94E7108B019C0187E591E0DC
:10041000B701A6010E94320C20E030E040E450E435
:100420000E946813F62E072F182FE92E862F902F83
:10043000A12FBE2D80931B0190931C01A0931D0141
:10044000B0931E0180E090E0DC0180930F01909357
:100450001001A0931101B0931201609053017090AC
:100460005401809055019090560160910E0170E00A
:10047000882777FD8095982F0E944F1269837A8391
:100480008B839C83A40193010E94E610D62EC72E75
:10049000B82EA92EA6019501652F742F832F922FB8
:1004A0002F2D302F412F5E2D0E94E6100E941C122E
:1004B000362E272E6F2D702F812F9E2DD601F50100
:1004C0002B2F3A2F4F2F5E2F0E94E7100E941C12F5
:1004D000562E472EC401B30129813A814B815C819C
:1004E0000E94E710D62EC72EB82EA92EA601950180
:1004F000652F742F832F922F2F2D302F412F5E2D9C
:100500000E94E6100E941C12962E872E6F2D702FCF
:10051000812F9E2DD601F5012B2F3A2F4F2F5E2FC5
:100520000E94E7100E941C129B01C101692F782FC5
:100530006135710514F060E570E0C201092F142DDA
:100540000135110514F000E510E0C401E92FF82D84
:100550006F0191E5C916D1041CF090E5C92ED12C8C
:10056000E22EF32EA1E5EA16F1041CF080E5E82E58
:10057000F12C77FFF2CE60E070E080E00E94820E06
:10058000B80117FFF0CE60E070E081E00E94820EBB
:10059000B601D7FEEECE60E070E082E00E94820EEF
:1005A000B701F7FEECCE60E070E0E9CE2F923F920B
:1005B0004F925F926F927F928F929F92AF92BF9273
:1005C000CF92DF92EF92FF920F931F93DF93CF931F
:1005D00000D0CDB7DEB71B012C0179018A016091F3
:1005E0000E0170E0882777FD8095982F0E944F12AA
:1005F0005B016C01A20191010E94E610962E872EEC
:10060000782E692EA4019301652F742F832F922FCA
:10061000A80197010E94E6100E941C1269837A8348
:10062000A4019301652F742F832F922FA8019701A6
:100630000E94E7100E941C12762E672EC601B5019B
:10064000A20191010E94E710A62ED72EC82EB92E26
:10065000A80197010E94E6100E941C12962E872E78
:10066000C801B7012A2D3D2D4C2D5B2D0E94E710AE
:100670000E941C129B0199818A81692F782F613514
:10068000710514F060E570E0C301092F162D0135E6
:10069000110514F000E510E0C401E92FF82D6F01F9
:1006A00041E5C416D1041CF040E5C42ED12CE22E45
:1006B000F32E51E5E516F1041CF020E5E22EF12CB5
:1006C00077FD2AC080E00E94820EB80117FD2CC081
:1006D00081E00E94820EB601D7FC2EC082E00E940B
:1006E000820EB701F7FC30C083E00E94820E0F90AB
:1006F0000F90CF91DF911F910F91FF90EF90DF90BE
:10070000CF90BF90AF909F908F907F906F905F90B1
:100710004F903F902F90089560E070E080E00E943D
:10072000820EB80117FFD4CF60E070E081E00E9434
:10073000820EB601D7FED2CF60E070E082E00E9468
:10074000820EB701F7FED0CF60E070E0CDCF809190
:100750007B028823E1F32FB7F894E0917001F091C8
:100760007101808190917B02915090937B022FBF09
:1007700020917001309171012F5F3F4F30937101D3
:100780002093700191E0293F390730F029E731E0EB
:100790003093710120937001282F332727FD309566
:1007A000932F089590917601903849F12FB7F894DE
:1007B000E0917401F09175018083809176018F5FE3
:1007C00080937601809174019091750101969093C8
:1007D00075018093740132E08937930730F089EF17
:1007E00091E090937501809374012FBF20E030E079
:1007F0008091C10080628093C100C90108952FEFEC
:100800003FEF8091C10080628093C100C9010895CB
:100810001092C50089E18093C40086E28093C200F3
:1008200089E791E090937101809370019093780132
:100830008093770189EF91E0909373018093720127
:10084000909375018093740110927B02109276014F
:1008500088E98093C100089580917B028823E1F3A9
:100860002FB7F894E0917001F0917101808190911F
:100870007B02915090937B022FBF209170013091A9
:1008800071012F5F3F4F309371012093700191E010
:10089000293F390730F029E731E030937101209387
:1008A0007001089580917B02882311F12FB7F8948D
:1008B000E0917001F0917101808190917B029150E3
:1008C00090937B022FBF20917001309171012F5FB7
:1008D0003F4F309371012093700191E0293F390718
:1008E00040F029E731E030937101209370010895C1
:1008F00080E0089590917601903839F12FB7F894FF
:10090000E0917401F09175018083809176018F5F91
:100910008093760180917401909175010196909376
:1009200075018093740132E08937930730F089EFC5
:1009300091E090937501809374012FBF80E09091B6
:10094000C10090629093C10008958FEF9091C10013
:1009500090629093C1000895FC018081882349F141
:10096000319629EF31E0909176019038D1F04FB770
:10097000F894A0917401B09175018C9380917601E7
:100980008F5F80937601809174019091750101963B
:10099000909375018093740152E08937950750F464
:1009A0004FBF8091C10080628093C10081918823F4
:1009B000D1F608953093750120937401F1CF82ED43
:1009C00093E067EA73E00E94241908952FB7F89422
:1009D00010927B0289E791E09093780180937701F0
:1009E00090937101809370012FBF08951F920F9211
:1009F0000FB60F9211242F938F939F93EF93FF9332
:100A00008091C0008C7121F580917B02803801F1CA
:100A1000E0917701F09178018091C6008083809108
:100A200077019091780101969093780180937701F6
:100A300021E0893F920730F089E791E090937801B7
:100A40008093770180917B028F5F80937B0218C037
:100A500080917C0290917D02019690937D0280931B
:100A60007C028091C60080937C0210927D0280916E
:100A7000790290917A02019690937A02809379029A
:100A8000FF91EF919F918F912F910F900FBE0F903B
:100A90001F9018951F920F920FB60F9211248F93EB
:100AA0009F93EF93FF93809176018823F1F0E0917B
:100AB0007201F091730181918093C600F0937301EC
:100AC000E093720182E0E937F80730F089EF91E0B6
:100AD000909373018093720180917601815080938D
:100AE000760180917601882329F48091C1008F7D61
:100AF0008093C100FF91EF919F918F910F900FBE56
:100B00000F901F9018955C9880688EBD0DB407FEFD
:100B1000FDCF8AEA8EBD0DB407FEFDCF8EB55C9A7F
:100B200008955C988EBD0DB407FEFDCF6EBD0DB46B
:100B300007FEFDCF5C9A0895549A5C9A84B18C624A
:100B400084B924988DE58CBD8DB58E7F8DBD5C9864
:100B50008BE68EBD0DB407FEFDCF80E88EBD0DB4D3
:100B600007FEFDCF5C9A8FEF91EEA4E0815090409C
:100B7000A040E1F700C000005C988BE68EBD0DB48C
:100B800007FEFDCF83E08EBD0DB407FEFDCF5C9A5E
:100B90009AE09A95F1F700C05C988AE68EBD0DB494
:100BA00007FEFDCF80E18EBD0DB407FEFDCF5C9A40
:100BB000AAE0AA95F1F700C05C9889E18EBD0DB45A
:100BC00007FEFDCF83E18EBD0DB407FEFDCF5C9A1D
:100BD000BAE0BA95F1F700C05C988AE18EBD0DB419
:100BE00007FEFDCF84E08EBD0DB407FEFDCF5C9AFD
:100BF0008AE08A95F1F700C05C988BE18EBD0DB458
:100C000007FEFDCF88E18EBD0DB407FEFDCF5C9AD7
:100C10009AE09A95F1F700C05C988CE18EBD0DB416
:100C200007FEFDCF88E08EBD0DB407FEFDCF5C9AB8
:100C3000AAE0AA95F1F700C008955C9880688EBD7F
:100C40000DB407FEFDCF442369F0E62FF72F80E0B7
:100C50002AEA2EBD0DB407FEFDCF9EB591938F5F9E
:100C60008417B8F35C9A0895DF93CF93CDB7DEB7BE
:100C70002E970FB6F894DEBF0FBECDBF5C988BEBFE
:100C80008EBD0DB407FEFDCFFE013196CE010F964D
:100C90003AEA3EBD0DB407FEFDCF2EB52193E8170D
:100CA000F907B9F75C9A398120E08A8190E0822BBC
:100CB000932B90939F0280939E023B8120E08C8136
:100CC00090E0822B932B90939D0280939C023D8118
:100CD00020E08E8190E0822B932B90938B02809367
:100CE0008A023F8120E0888590E0822B932B9093AD
:100CF0009B0280939A02398520E08A8590E0822BBE
:100D0000932B9093AD028093AC023B8520E08C85C1
:100D100090E0822B932B9093C3028093C2023D8577
:100D200020E08E8590E0822B932B90937F0280931E
:100D30007E022E960FB6F894DEBF0FBECDBFCF91C8
:100D4000DF9108952F923F924F925F926F927F9220
:100D50008F929F92AF92BF92CF92DF92EF92FF92CB
:100D60000F931F93DF93CF93CDB7DEB763970FB683
:100D7000F894DEBF0FBECDBF5C988BEB8EBD0DB47B
:100D800007FEFDCFFE013196CE010F963AEA3EBD39
:100D90000DB407FEFDCF2EB52193E817F907B9F77B
:100DA0005C9A998180E06A8170E0682B792B70935E
:100DB0009F0260939E029B8180E00C8110E0082BD3
:100DC000192B10939D0200939C029D8180E0EE8080
:100DD000FF24E82AF92AF0928B02E0928A029F818E
:100DE00080E0C884DD24C82AD92AD0929B02C09210
:100DF0009A02998580E0AA84BB24A82AB92AB092D5
:100E0000AD02A092AC029B8580E08C849924882A54
:100E1000992A9092C3028092C2029D8580E06E84DE
:100E20007724682A792A70927F0260927E026E5A35
:100E30007140882777FD8095982F0E944F1223E2FA
:100E40003BED49EF5DE30E9468130E941C122B01E9
:100E50007093810260938002085F1F4FB80188275A
:100E600077FD8095982F0E944F1226E136EF44EFD0
:100E70005DE30E9468130E941C121B01709399028B
:100E800060939802B70165557040882777FD80957B
:100E9000982F0E944F1226E136EF44EF5DE30E9447
:100EA00068130E941C12788B6F877093BD02609349
:100EB000BC02B201882777FD8095982F0E944F12BF
:100EC0009B01AC010E946813062FE72E182FF92E04
:100ED000B101882777FD8095982F0E944F129B01C2
:100EE000AC010E946813562E472E382E292E2F85CE
:100EF0003889B901882777FD8095982F0E944F1275
:100F00009B01AC010E9468136F87798B8A8B9B8B46
:100F1000602F7E2D812F9F2DD201F1012B2F3A2F93
:100F20004F2F5E2F0E94E710BF85A989FA89EB89B0
:100F30002B2F3A2F4F2F5E2F0E94E7100E94D513C0
:100F40000E941C127093BB026093BA02B6016950F2
:100F50007240882777FD8095982F0E944F122BECC6
:100F60003DEB40E45BE30E94681320E030E04CE09E
:100F700052E40E94E71060938C0270938D0280937C
:100F80008E0290938F028091A8029091A902A09165
:100F9000AA02B091AB028093A4029093A502A09301
:100FA000A602B093A7028091940290919502A0911D
:100FB0009602B09197028093A0029093A102A09311
:100FC000A202B093A302B501605E7F4F882777FD30
:100FD0008095982F0E944F1222E330EA4BE85AE3A3
:100FE0000E9468136093A8027093A9028093AA02DA
:100FF0009093AB02B4016C517040882777FD8095C7
:10100000982F0E944F1222E330EA4BE85AE30E94E5
:101010006813609394027093950280939602909364
:101020009702B3016C5F7F4F882777FD8095982FDB
:101030000E944F1222E330EA4BE85AE30E94681301
:101040006093BE027093BF028093C0029093C1026E
:1010500063960FB6F894DEBF0FBECDBFCF91DF9180
:101060001F910F91FF90EF90DF90CF90BF90AF90C6
:101070009F908F907F906F905F904F903F902F90B8
:1010800008954F925F926F927F928F929F92AF924C
:10109000BF92CF92DF92EF92FF920F931F936091D6
:1010A000BC027091BD02882777FD8095982F0E9421
:1010B0004F127B018C016091800270918102882720
:1010C00077FD8095982F0E944F12A80197010E94EA
:1010D0005A115B016C0160938202709383028093CA
:1010E00084029093850260919802709199028827FA
:1010F00077FD8095982F0E944F12A80197010E94BA
:101100005A112B013C0160939002709391028093DD
:101110009202909393026091A4027091A502809133
:10112000A6029091A7022DEC3CEC4CEC5CE30E94F3
:10113000681320E030E0A9010E94E7108B017C01D8
:10114000712F9F2D22E33CE043E45DE30E9468138E
:1011500020E030E0A9010E94E71020E030E0A90182
:101160000E94E710B62FA72FF82FE92FBD01CF015E
:10117000272F362F492F582F20930A0130930B0128
:1011800040930C0150930D01C601B5010E94E61079
:101190009B01AC01602F712F8E2D9F2D0E94E710B7
:1011A000D62EC72EB82E992EA601852F942FAB2DA3
:1011B000B92D8093AE029093AF02A093B002B0938A
:1011C000B1026091A0027091A1028091A20290915F
:1011D000A3022DEC3CEC4CEC5CE30E9468139B01F9
:1011E000AC0160E070E0CB010E94E610E62E072F14
:1011F000182FA92E22E33CE043E45DE30E9468132C
:1012000020E030E0A9010E94E71020E030E0A901D1
:101210000E94E710B62FA72FF82FE92FBD01CF01AD
:10122000272F362F492F582F20930601309307017F
:101230004093080150930901C301B2010E94E610D6
:101240009B01AC016E2D702F812F9A2D0E94E7100B
:101250007B018C01862F9F2DA02FB12F8093B2028E
:101260009093B302A093B402B093B502A601652F88
:10127000742F8B2D992D20EE3EE245E652E40E941C
:10128000681360938602709387028093880290931C
:1012900089026E2D7F2D802F912F20EE3EE245E6B4
:1012A00052E40E9468136093B6027093B702809371
:1012B000B8029093B9021F910F91FF90EF90DF90C9
:1012C000CF90BF90AF909F908F907F906F905F90E6
:1012D0004F9008958BB180638BB91092B9008CE068
:1012E0008093B80084E08093BC000895CF93DF938F
:1012F00094EA9093BC009091BC0097FFFCCF816072
:101300008093BB0084E88093BC008091BC0087FF81
:10131000FCCF50E09A012150304012161306B4F46D
:10132000F0E080E090E0A4ECA093BC00E091BC0071
:10133000E7FFFCCFE091BB00860F971FEC01E8832D
:10134000FF5F8F2F90E08217930774F384E88093F8
:10135000BC008091BC0087FFFCCF8091BB00640F74
:10136000751F61507040FB01808384E98093BC004D
:10137000DF91CF91089594EA9093BC009091BC00C6
:1013800097FFFCCF8093BB0094E89093BC009091B2
:10139000BC0097FFFCCF6093BB0094E89093BC0027
:1013A0009091BC0097FFFCCF94E99093BC0094EA25
:1013B0009093BC009091BC0097FFFCCF816080931C
:1013C000BB0084E88093BC008091BC0087FFFCCF09
:1013D00084E88093BC008091BC0087FFFCCF84E947
:1013E0008093BC008091BB00089594EA9093BC0068
:1013F0009091BC0097FFFCCF8093BB0084E8809362
:10140000BC008091BC0087FFFCCF6093BB0084E8E8
:101410008093BC008091BC0087FFFCCF84E980935F
:10142000BC00089594EA9093BC009091BC0097FF93
:10143000FCCF8093BB0084E88093BC008091BC000B
:1014400087FFFCCF6093BB0084E88093BC00809151
:10145000BC0087FFFCCF4093BB0084E88093BC00B6
:101460008091BC0087FFFCCF84E98093BC00089585
:101470000E946A098AE18A95F1F700C08CE360E076
:1014800048E70E94120A8AE08A95F1F700C08CE3CF
:1014900062E040E00E94120A8AE08A95F1F700C0FB
:1014A00008958CE36AE00E94BB090895DF93CF930F
:1014B00000D000D000D0CDB7DEB78CE363E00E944F
:1014C000F5098CE3BE016F5F7F4F46E00E9476090D
:1014D000998180E04A8150E0482B592B5093FF02BC
:1014E0004093FE029D8180E02E8130E0282B392B35
:1014F00030930103209300037B8160E08C8190E0B6
:10150000862B972B9093FB028093FA02509541957E
:101510005F4F5093F3024093F2023093F90220930D
:10152000F802909581959F4F9093FD028093FC0265
:1015300026960FB6F894DEBF0FBECDBFCF91DF91D8
:1015400008952F923F924F925F926F927F928F9267
:101550009F92AF92BF92CF92DF92EF92FF920F9342
:101560001F93DF93CF93CDB7DEB760970FB6F89494
:10157000DEBF0FBECDBF5B016C0179018A010E9405
:10158000B11169837A838B839C83C601B5010E9464
:10159000CB135B016C01C801B7010E94B1116987CF
:1015A0007A878B879C87C801B7010E94CB136D8314
:1015B0007E838F8398876091F8027091F902882763
:1015C00077FD8095982F0E944F127B018C016091CE
:1015D000FC027091FD02882777FD8095982F0E946C
:1015E0004F121B012C0169817A818B819C81A8019A
:1015F00097010E9468133B014C01C601B501A2018D
:1016000091010E9468139B01AC01C401B3010E94C7
:10161000E6109B01AC0150582D873E874F87588BB1
:101620006091F2027091F302882777FD8095982FE0
:101630000E944F1229853A854B855C850E9468136C
:101640003B014C01C801B701A60195010E94681336
:101650002D813E814F8158850E9468139B01AC010A
:10166000C401B3010E94E7107B018C01C201B101EA
:1016700029813A814B815C810E9468132D813E81D2
:101680004F8158850E9468139B01AC01C801B701C6
:101690000E94E7109B01AC016D857E858F8598893E
:1016A0000E945A112CE131E849E55EE30E94E61000
:1016B00023EC38EB42E35FE30E94E710262E672E0F
:1016C000A82EE92E862F962DAA2DBE2D80930203DB
:1016D00090930303A0930403B0930503622D762D2A
:1016E0008A2D9E2D2BED3FE049E450E40E945D13CE
:1016F00018160CF46DC0622D762D8A2D9E2D2BEDC3
:101700003FE049E450EC0E94AD1187FF1AC0622D02
:10171000762D8A2D9E2D2BED3FE049EC50E40E9462
:10172000E710262E672EA82EE92E862F972FAA2D9A
:10173000BE2D8093020390930303A0930403B09300
:101740000503622D762D8A2D9E2D20EE3EE245E684
:1017500052E40E9468136093F4027093F502809340
:10176000F6029093F702622D762D8A2D9E2D0E940F
:10177000B1116093EE027093EF028093F0029093A8
:10178000F102622D762D8A2D9E2D0E94CB1360933F
:10179000EA027093EB028093EC029093ED02609664
:1017A0000FB6F894DEBF0FBECDBFCF91DF911F9172
:1017B0000F91FF90EF90DF90CF90BF90AF909F90F0
:1017C0008F907F906F905F904F903F902F900895F3
:1017D000622D762D8A2D9E2D2BED3FE049EC50E4B5
:1017E0000E94E6109ECF8F929F92AF92BF92CF92AF
:1017F000DF92EF92FF920F931F93DF93CF93CDB7BA
:10180000DEB7FC01408351836283738304831583B5
:1018100026833783C086D186E286F38684869586C2
:10182000A686B78680E090E0DC01848B958BA68B42
:10183000B78B8091060390910703A0910803B091A4
:101840000903808B918BA28BB38BCF91DF911F917A
:101850000F91FF90EF90DF90CF90BF90AF909F904F
:101860008F9008952F923F924F925F926F927F9246
:101870008F929F92AF92BF92CF92DF92EF92FF92A0
:101880000F931F93DF93CF9300D000D00F92CDB76B
:10189000DEB79D838C833A014B01580169011FB764
:1018A000F89460910603709107038091080390916A
:1018B0000903EC81FD812089318942895389621BAA
:1018C000730B840B950B0E944D12562E472E382E0B
:1018D000292E8091060390910703A0910803B091EF
:1018E0000903EC81FD81808B918BA28BB38B1FBF91
:1018F000C401B301A60195010E94E610762E7983FA
:101900008A839B83A2019101652F742F832F922FCD
:10191000A9811A810B81272D3A2F412F502F0E9428
:101920006813EC81FD8124893589468957890E9495
:10193000E7108B01F82EE92E9701862F912FA32F08
:10194000B22FEC81FD81848B958BA68BB78B602F9A
:10195000712F832F922F20E030E044E352E40E9465
:101960005D1318160CF481C09701602F712F832F1F
:10197000922F20E030E044E352EC0E94AD1187FF4B
:1019800010C080E090E0A4E3B2ECEC81FD81848B98
:10199000958BA68BB78B00E010E094E3F92E82ECD8
:1019A000E82EC601B501EC81FD812485358546858B
:1019B00057850E94E610EC81FD81208531854285A6
:1019C00053850E946813D201F1012B2F342D4F2F24
:1019D000522D0E94B411662E972E882E592EEC811E
:1019E000FD81A486B586C686D78649813A812B813A
:1019F000672D742F832F922F208131814281538153
:101A00000E9468135B016C019701602F712F832F77
:101A10009E2DEC81FD8124813581468157810E9474
:101A200068139B01AC01C601B5010E94E710262D89
:101A3000392D482D552D0E94E6100F900F900F90D4
:101A40000F900F90CF91DF911F910F91FF90EF902A
:101A5000DF90CF90BF90AF909F908F907F906F90CE
:101A60005F904F903F902F90089580E090E0A4E326
:101A7000B2E4EC81FD81848B958BA68BB78B00E063
:101A800010E034E3F32E22E4E22E8BCF1092060313
:101A900010920703109208031092090382E084BD9C
:101AA00083E085BD89EF87BDEEE6F0E0808182604E
:101AB0008083E4E6F0E080818F7D808308951F922B
:101AC0000F920FB60F9211248F939F93AF93BF93F2
:101AD0008091060390910703A0910803B091090338
:101AE0000196A11DB11D8093060390930703A09357
:101AF0000803B0930903BF91AF919F918F910F900D
:101B00000FBE0F901F90189587B18F6087B988B16D
:101B1000807F88B910920E0381E08093130382E0E6
:101B20008093180383E080931D03089580E590E07F
:101B300090930D0380930C039093120380931103F1
:101B4000909317038093160390931C0380931B03B9
:101B500082E08093B0008093B10083E18093B30072
:101B6000E0E7F0E0808182608083109280008DE069
:101B70008093810087E290E09093890080938800B1
:101B8000EFE6F0E0208122602083E4E6F0E02081AF
:101B9000277B208390931F0380931E038FEF95EA8A
:101BA000AEE081509040A040E1F700C000001092EC
:101BB0000D0310920C037FB7F894ACE0B3E02BE672
:101BC00030E03E932E9368B181E090E0AC01149632
:101BD0000C90149702C0440F551F0A94E2F7642B2F
:101BE00068B97FBF40814F7B4083109212031092EF
:101BF00011037FB7F89416963C932E93159768B10E
:101C0000AC0119960C90199702C0440F551F0A9405
:101C1000E2F7642B68B97FBF40814F7B408310920D
:101C20001703109216037FB7F8941B963C932E93DC
:101C30001A9768B1AC011E960C901E9702C0440F13
:101C4000551F0A94E2F7642B68B97FBF40814F7B30
:101C5000408310921C0310921B034FB7F8945096C8
:101C60003C932E931F9728B153960C90539702C024
:101C7000880F991F0A94E2F7282B28B94FBF80815B
:101C80008F7B80838FEF95EAAEE081509040A0403B
:101C9000E1F700C000008081886480838CE093E0DD
:101CA00090931F0380931E03089582E08093B000F9
:101CB0008093B10083E18093B300E0E7F0E080819E
:101CC00082608083109280008DE08093810087E2A3
:101CD00090E09093890080938800EFE6F0E0208107
:101CE00022602083E4E6F0E02081277B208390932C
:101CF0001F0380931E030895E4E6F0E08081877B54
:101D00008083089590E0FC01EE0FFF1FEE0FFF1F90
:101D1000E80FF91FE65FFC4F738362833FB7F894C7
:101D200065597F4F7183608328B181E090E0048022
:101D300002C0880F991F0A94E2F7282B28B93FBFE9
:101D4000E4E6F0E080818F7B8083089590E0772740
:101D500067FD7095FC01EE0FFF1FEE0FFF1FDF0107
:101D6000A80FB91FA65FBC4F12962D913C911397F7
:101D7000620F731F6135710514F060E570E077FD47
:101D800016C0E80FF91FE65FFC4F73836283655945
:101D90007F4F7183608328B181E090E0048002C0AE
:101DA000880F991F0A94E2F7282B28B9089560E05C
:101DB00070E0E7CF9C0140E050E069E07DE380E027
:101DC00090E00E94C2172150304030931F032093AF
:101DD0001E030895E4E6F0E0808188608083089522
:101DE000E4E6F0E08081877F8083089580910A0394
:101DF00090910B03009709F471C080910F039091AB
:101E00001003009709F44BC08091140390911503BF
:101E1000009731F18091190390911A03009709F00E
:101E2000089580911B0390911C033FB7F894855946
:101E30009F4F90931A038093190328B181E090E09B
:101E400000901D0302C0880F991F0A94E2F7282B07
:101E500028B93FBF809164008F7B80936400089510
:101E600080911603909117033FB7F89485599F4FBF
:101E7000909315038093140328B181E090E00090C3
:101E8000180302C0880F991F0A94E2F7282B28B97B
:101E90003FBF809164008F7B80936400BBCF8091B3
:101EA0001103909112033FB7F89485599F4F909377
:101EB000100380930F0328B181E090E0009013039A
:101EC00002C0880F991F0A94E2F7282B28B93FBF58
:101ED000809164008F7B8093640096CF80910C0387
:101EE00090910D033FB7F89485599F4F90930B0342
:101EF00080930A0328B181E090E000900E0302C0B5
:101F0000880F991F0A94E2F7282B28B93FBF8091C8
:101F100064008F7B8093640070CF1F920F920FB686
:101F20000F9211248F939F9380910A0390910B033A
:101F30000097C1F480910F0390911003009791F4E2
:101F40008091140390911503009761F48091190317
:101F500090911A03009731F480916400806480931B
:101F60006400189580910A0390910B03882329F44B
:101F7000992349F08A959A9509C08A9529F499235D
:101F800029F4409806C00000000000000000000096
:101F9000000090930B0380930A0380910F039091AC
:101FA0001003882329F4992349F08A959A9509C04A
:101FB0008A9529F4992329F4419806C0000000006D
:101FC00000000000000000009093100380930F03B6
:101FD0008091140390911503882329F4992349F0E3
:101FE0008A959A9509C08A9529F4992329F44298EB
:101FF00006C00000000000000000000000009093F8
:102000001503809314038091190390911A03882378
:1020100029F4992349F08A959A9509C08A9529F45B
:10202000992329F4439806C0000000000000000036
:102030000000000090931A03809319039F918F91E1
:102040000F900FBE0F901F9018951F920F920FB612
:102050000F9211242F933F938F939F9380911E0390
:1020600090911F03909389008093880080910A03C8
:1020700090910B030097E9F080910F03909110036A
:102080000097D9F18091140390911503009709F4FA
:1020900059C08091190390911A03009709F477C0F1
:1020A0009F918F913F912F910F900FBE0F901F9096
:1020B000189580910C0390910D033FB7F8948559C2
:1020C0009F4F90930B0380930A0328B181E090E027
:1020D00000900E0302C0880F991F0A94E2F7282B84
:1020E00028B93FBF809164008F7B8093640080910A
:1020F0000F0390911003009729F68091110390919E
:1021000012033FB7F89485599F4F90931003809323
:102110000F0328B181E090E00090130302C0880F04
:10212000991F0A94E2F7282B28B93FBF80916400D9
:102130008F7B809364008091140390911503009726
:1021400009F0A7CF80911603909117033FB7F89439
:1021500085599F4F909315038093140328B181E014
:1021600090E00090180302C0880F991F0A94E2F7CC
:10217000282B28B93FBF809164008F7B8093640037
:102180008091190390911A03009709F089CF8091EB
:102190001B0390911C033FB7F89485599F4F909370
:1021A0001A038093190328B181E090E000901D0389
:1021B00002C0880F991F0A94E2F7282B28B93FBF65
:1021C000809164008F7B809364006ACF5058BB2756
:1021D000AA270ED027C2F0D130F0F5D120F031F48B
:1021E0009F3F11F41EF4C0C10EF4E095E7FBB6C1A9
:1021F000E92F3AD280F3BA1762077307840795076D
:1022000018F071F49EF552C20EF4E0950B2EBA2F21
:10221000A02D0B01B90190010C01CA01A0011124EC
:10222000FF27591B99F0593F50F4503E68F11A1698
:10223000F040A22F232F342F4427585FF3CF469529
:1022400037952795A795F0405395C9F77EF41F164B
:10225000BA0B620B730B840BBAF09150A1F0FF0F15
:10226000BB1F661F771F881FC2F70EC0BA0F621F01
:10227000731F841F48F4879577956795B795F795F1
:102280009E3F08F0B3CF9395880F08F09927EE0F83
:1022900097958795089590D158F080E891E009F4DA
:1022A0009EEF91D128F040E851E059F45EEF09C06B
:1022B0005BC1FCC1E92FE078D7D168F3092E052A6C
:1022C000C1F3261737074807590738F00E2E07F8CD
:1022D000E02569F0E025E0640AC0EF6307F80094A8
:1022E00007FADB01B9019D01DC01CA01AD01EF93E1
:1022F0004AD098D10AD05F91552331F02BED3FE0C1
:1023000049E450FD49EC63CF0895DF93DD27B92FF1
:10231000BF7740E85FE31616170648075B0710F41F
:10232000D92FCFD19F938F937F936F937CD2E8E681
:10233000F0E01DD177D12F913F914F915F91D4D192
:10234000DD2349F09058A2EA2AED3FE049EC5FE333
:10235000D0785D274DDFDF9165C1DCD008F481E0E6
:10236000089539D1E3956FC10CD05CC12CD140F0F8
:1023700023D130F021F45F3F19F0F0C0511197C123
:10238000F3C072D198F39923C9F35523B1F3951B88
:10239000550BBB27AA2762177307840738F09F5F86
:1023A0005F4F220F331F441FAA1FA9F333D00E2EF5
:1023B0003AF0E0E830D091505040E695001CCAF762
:1023C00029D0FE2F27D0660F771F881FBB1F261727
:1023D00037074807AB07B0E809F0BB0B802DBF01FA
:1023E000FF2793585F4F2AF09E3F510568F0B6C013
:1023F0005EC15F3FECF3983EDCF386957795679579
:10240000B795F7959F5FC9F7880F911D96958795AA
:1024100097F90895E1E0660F771F881FBB1F6217C9
:1024200073078407BA0720F0621B730B840BBA0B87
:10243000EE1F88F7E095089504D06894B11137C174
:1024400008951AD188F09F5790F0B92F9927B75166
:10245000A0F0D1F0660F771F881F991F1AF0BA9568
:10246000C9F712C0B13081F021D1B1E008951EC189
:10247000672F782F8827B85F39F0B93FCCF386955E
:1024800077956795B395D9F73EF4909580957095BB
:1024900061957F4F8F4F9F4F0895E89409C097FB38
:1024A0003EF490958095709561957F4F8F4F9F4F2B
:1024B0009923A9F0F92F96E9BB279395F69587956F
:1024C00077956795B795F111F8CFFAF4BB0F11F432
:1024D00060FF1BC06F5F7F4F8F4F9F4F16C08823D9
:1024E00011F096E911C0772321F09EE8872F762F0F
:1024F00005C0662371F096E8862F70E060E02AF050
:102500009A95660F771F881FDAF7880F969587953B
:1025100097F90895990F0008550FAA0BE0E8FEEF10
:1025200016161706E807F907C0F012161306E40797
:10253000F50798F0621B730B840B950B39F40A2690
:1025400061F0232B242B252B21F408950A2609F46E
:10255000A140A6958FEF811D811D089597F99F6772
:1025600080E870E060E008959FEF80EC0895DF93CD
:10257000CF931F930F93FF92EF92DF927B018C0119
:10258000689405C0DA2EEF01AFD0FE01E894A59162
:102590002591359145915591AEF3EF0129DEFE016C
:1025A0009701A801DA9479F7DF90EF90FF900F91EF
:1025B0001F91CF91DF91089500240A9416161706F3
:1025C00018060906089500240A9412161306140624
:1025D00005060895C9CF50D0E8F3E894E0E0BB27A2
:1025E0009F57F0F02AED3FE049EC06C0EE0FBB0F1D
:1025F000661F771F881F28F0B23A620773078407A7
:1026000028F0B25A620B730B840BE3959A9572F71C
:10261000803830F49A95BB0F661F771F881FD2F75A
:10262000904806C1092E0394000C11F4882352F03F
:10263000BB0F40F4BF2B11F460FF04C06F5F7F4FEE
:102640008F4F9F4F0895EF93E0FF06C0A2EA2AED57
:102650003FE049EC5FEBCCDDE5DF0F90039401FC3C
:102660009058E5E9F0E0F7C057FD9058440F551F2A
:1026700059F05F3F71F04795880F97FB991F61F004
:102680009F3F79F087950895121613061406551F7B
:10269000F2CF4695F1DF08C0161617061806991FE7
:1026A000F1CF86957105610508940895E894BB27DC
:1026B00066277727CB0197F908952CDF08F48FEF71
:1026C00008959B01AC0160E070E080E89FE34CCE90
:1026D0000BD0A8CF71DF28F076DF18F0952309F032
:1026E0003DCF42CF1124E3CFBFDFA0F3959FD1F3BD
:1026F000950F50E0551F629FF001729FBB27F00DB0
:10270000B11D639FAA27F00DB11DAA1F649F662704
:10271000B00DA11D661F829F2227B00DA11D621F53
:10272000739FB00DA11D621F839FA00D611D221F0D
:10273000749F3327A00D611D231F849F600D211DF1
:10274000822F762F6A2F11249F5750408AF0E1F094
:1027500088234AF0EE0FFF1FBB1F661F771F881FDD
:1027600091505040A9F79E3F510570F0F7CE9FCF92
:102770005F3FECF3983EDCF3869577956795B795C8
:10278000F795E7959F5FC1F7FE2B880F911D9695F2
:10279000879597F908959F931EDF0F9007FCEE5FD2
:1027A00052CF11F40EF4E0CE41C066DFD0F399238E
:1027B000D9F3CEF39F57550B87FF46D00024A0E6F0
:1027C00040EA900180585695979528F4805C660FF2
:1027D000771F881F20F026173707480730F4621B41
:1027E000730B840B202931294A2BA6951794079443
:1027F000202531254A2758F7660F771F881F20F0BC
:1028000026173707480730F4620B730B840B200D33
:10281000311D411DA09581F7B901842F9158880F72
:102820009695879508959B01AC0152CF9F3F31F05B
:10283000915020F4879577956795B795880F911DEE
:102840009695879597F9089591505040660F771F98
:10285000881FD2F708959F938F937F936F93FF9371
:10286000EF939B01AC0134DFEF91FF9180DE2F915C
:102870003F914F915F912CCFA3E1B0E0E2E4F4E10E
:102880000C94DD176C017F876E87FC01178216821E
:10289000838181FD04C06FC34C855D8504C01E012A
:1028A0000894211C311CF6019381EE85FF8593FD70
:1028B000859193FF8191FF87EE87882309F457C3A1
:1028C000853241F493FD859193FF8191FF87EE87D7
:1028D000853259F490E0B6014A8B5B8B0E946F19E8
:1028E0004A895B895D874C87D7CF10E0FF2400E0E1
:1028F0000032B0F48B3269F08C3228F4803251F01F
:10290000833271F40BC08D3239F0803349F40160A9
:102910002CC00260046029C0086027C0006125C087
:1029200007FD2EC0282F20532A3098F406FF08C038
:10293000812F880F182F110F110F180F120F15C0AC
:102940008F2D880FF82EFF0CFF0CF80EF20E006290
:102950000CC08E3221F406FD0AC3006406C08C361A
:1029600011F4006802C0883659F4EE85FF8593FDA6
:10297000859193FF8191FF87EE87882309F0B8CF77
:10298000982F9554933018F40061805E06C0982FFC
:102990009556933008F09BC10F7E06FF16E06FE35B
:1029A000E62EE022853619F4F0E4EF2A07C08636D9
:1029B00019F420E8E22A02C011111150E7FE06C006
:1029C0001C3340F4912E939427E00BC0183030F460
:1029D000212F06C027E03CE3932E03C027E017E039
:1029E0009924CA0104969D878C87FA0160817181C0
:1029F00082819381A101092D0E9436185C016980B2
:102A0000262D30E0398B288B60FE03C0388933FFD8
:102A100006C0E1FC06C0E2FE06C000E205C00DE211
:102A200003C00BE201C000E0888999898C70907026
:102A30000097C1F1002311F084E001C083E08F15FD
:102A400058F4F81AE3FC09C080E290E0B6010E9455
:102A50006F19FA94C9F701C0FF24002329F0802FD1
:102A600090E0B6010E946F19888983FD03C007EBCF
:102A700010E00EC003EB10E00BC0A114B10409F08C
:102A8000805290E0B6010E946F190F5F1F4F05C082
:102A9000AE2CBB2490E1A922BB24F80184918823A9
:102AA00061F762C2E7FE0EC09A0CF889F4FF04C019
:102AB0008A81813309F49A94191454F5292D293007
:102AC00050F52DC0E6FC2BC0812F90E08A159B05A8
:102AD0004CF03CEFA3163FEFB30624F080E8E82A61
:102AE00001C01150112349F0E2E0F0E0EC0FFD1FAE
:102AF000E10FF11D80818033A1F3E7FE10C0912E1C
:102B00009394812F90E0A816B90644F41A1907C0CF
:102B10009924939404C098E0992E01C010E0E7FE38
:102B200007C01A141B043CF495012F5F3F4F05C0EA
:102B300025E030E002C021E030E0002311F02F5FFB
:102B40003F4F112329F0812F90E00196280F391F64
:102B50008F2D90E02817390714F4F21A01C0FF24D2
:102B60004E2C5524C20189709070009749F406C01C
:102B700080E290E0B6010E946F19FA94FF20C1F73D
:102B8000002329F0802F90E0B6010E946F1943FCCA
:102B900009C006C080E390E0B6010E946F19FA9464
:102BA000FF20C1F7E7FE46C03501B7FE02C066242C
:102BB000772425010894411C511C46185708420CE3
:102BC000531CF501E919F1094F01812F90E000270D
:102BD0001127081B190BFFEF6F16FFEF7F0629F473
:102BE0008EE290E0B6010E946F19A614B70434F08B
:102BF000861497041CF4F201808101C080E30894DC
:102C0000610871080894411C511C601671062CF073
:102C100090E0B6010E946F19DECF6A147B0441F484
:102C20009A81963320F4953319F4F889F4FF81E3FF
:102C300090E049C08A81813311F02FEE622290E04A
:102C4000B6010E946F19112389F08EE290E0B6015F
:102C50000E946F1902E0F101E00FF11D0F5F80810A
:102C600090E0B6010E946F191150A9F744FE03C00D
:102C700085E490E002C085E690E0B6010E946F19FD
:102C8000B7FC05C0A114B10441F464FE06C0B094C1
:102C9000A194B108B3948DE201C08BE290E0B6013B
:102CA0000E946F1980E305C08F5FE6EFFFEFAE0E65
:102CB000BF1EFAE0AF16B104BCF790E0B6010E9467
:102CC0006F19C501C096B6010E946F194DC18336B8
:102CD00031F0833789F0833509F059C022C09A0159
:102CE0002E5F3F4F3D872C87FA0180818983310118
:102CF00081E0A82EB12C13C09A012E5F3F4F3D8773
:102D00002C87FA016080718006FF03C0612F70E09C
:102D100002C06FEF7FEFC3010E9419195C010F77AA
:102D200014C09A012E5F3F4F3D872C87FA016080C7
:102D3000718006FF03C0612F70E002C06FEF7FEF6C
:102D4000C3010E940E195C01006803FD1CC006C08F
:102D500080E290E0B6010E946F19FA948F2D90E006
:102D6000A816B906A8F30FC0F30107FD859107FF68
:102D700081913F0190E0B6010E946F19F110FA9421
:102D80000894A108B108A114B10471F7EDC084360C
:102D900011F0893661F507FF0BC09A012C5F3F4F98
:102DA0003D872C87FA0160817181828193810CC0FB
:102DB0009A012E5F3F4F3D872C87FA016081718118
:102DC000882777FD8095982F0F7697FF08C09095FC
:102DD0008095709561957F4F8F4F9F4F0068A1013F
:102DE0002AE030E00E949B19982E921841C0853746
:102DF00021F40F7E2AE030E020C0097F8F36A9F051
:102E0000803720F4883509F0B2C00BC0803721F03C
:102E1000883709F0ACC001C0006104FF09C004603C
:102E200007C004FF08C0066006C028E030E005C007
:102E300020E130E002C020E132E007FF0AC0CA0111
:102E400004969D878C87FA016081718182819381CC
:102E500009C0CA0102969D878C87FA016081718141
:102E600080E090E0A1010E949B19982E92180F77A4
:102E700006FF09C00E7F911630F404FF06C002FD64
:102E800004C00F7E02C0E92C01C0E12E802F90E02B
:102E900004FF0CC0FE01E90DF11D2081203311F467
:102EA000097E09C0E39402FF06C004C086789070D2
:102EB000009709F0E394A02EBB2403FD14C000FF8B
:102EC0000FC0EF1428F4192D1F0D1E19EF2C08C088
:102ED000192D06C080E290E0B6010E946F19E394BC
:102EE000EF14C0F304C0EF1410F4FE1801C0FF2467
:102EF000A4FE0FC080E390E0B6010E946F19A2FE0D
:102F00001FC0A1FE03C088E590E010C088E790E0F4
:102F10000DC0C50186789070009791F0A1FC02C0A9
:102F200080E201C08BE207FD8DE290E0B6010E94D5
:102F30006F1906C080E390E0B6010E946F1911502E
:102F40009116C0F39A94F101E90DF11D808190E092
:102F5000B6010E946F199920A9F706C080E290E09F
:102F6000B6010E946F19FA94FF20C1F795CCF601C3
:102F70002681378102C02FEF3FEFC9016396E2E15E
:102F80000C94F91797FB092E05260ED057FD04D097
:102F90004BD00AD0001C38F45095409530952195BF
:102FA0003F4F4F4F5F4F0895F6F79095809570957E
:102FB00061957F4F8F4F9F4F08952F923F924F9271
:102FC0005F926F927F928F929F92AF92BF92CF92B9
:102FD000DF92EF92FF920F931F93CF93DF93CDB7C2
:102FE000DEB7CA1BDB0B0FB6F894DEBF0FBECDBF3A
:102FF00009942A88398848885F846E847D848C840B
:103000009B84AA84B984C884DF80EE80FD800C8113
:103010001B81AA81B981CE0FD11D0FB6F894DEBFF6
:103020000FBECDBFED010895A1E21A2EAA1BBB1B56
:10303000FD010DC0AA1FBB1FEE1FFF1FA217B30784
:10304000E407F50720F0A21BB30BE40BF50B661F9A
:10305000771F881F991F1A9469F76095709580955E
:1030600090959B01AC01BD01CF010895283008F077
:1030700027E03327DA01990F311D87FD9160009613
:103080006105710539F432602E5F3D9330E32A9576
:10309000E1F708959F3F30F080387105610509F030
:1030A0003C5F3C5F3D93913008F08068911DDF9359
:1030B000CF931F930F93FF92EF92192F987F9695BE
:1030C000E92F96959695E90FFF27EB5EFE4F99271E
:1030D0003327EE24FF24A701E70105900894079405
:1030E00028F4360FE71EF81E491F511D660F771F83
:1030F000881F991F0694A1F70590079428F4E70EFE
:10310000F81E491F561FC11D770F881F991F661F84
:103110000694A1F70590079428F4F80E491F561F4E
:10312000C71FD11D880F991F661F771F0694A1F72F
:103130000590079420F4490F561FC71FD81F990FF9
:10314000661F771F881F0694A9F784911095177042
:1031500041F0D695C79557954795F794E7941A95FA
:10316000C1F7EBEBF0E068941590159135916591FE
:10317000959105907FE27395E118F10A430B560B88
:10318000C90BD009C0F7E10CF11E431F561FC91F20
:10319000D01D7EF4703311F48A95E6CFE894015087
:1031A00030F0080F0AF40027021708F4202F2395A7
:1031B000022F7A3328F079E37D932A95E9F710C03E
:1031C0007D932A9589F60694979567953795179577
:1031D0001794E118F10A430B560BC90BD00998F06C
:1031E00023957E9173957A3308F070E37C932013D6
:1031F000B8F77E9170617D9330F0839571E37D9394
:1032000070E32A95E1F71124EF90FF900F911F9141
:10321000CF91DF91992787FD90950895FC01059046
:10322000615070400110D8F7809590958E0F9F1FC8
:103230000895FC016150704001900110D8F780950D
:1032400090958E0F9F1F08950F931F93CF93DF9339
:103250008C01EB01009711F42097C9F181E090E017
:103260006EE070E00E94F919FC019C01009789F161
:1032700080E88383209771F0D387C28781E88383B6
:103280008091200390912103009721F4F093210372
:10329000E093200301151105E1F011870087838178
:1032A000826083838091220390912303009789F4A5
:1032B000F0932303E093220380912403909125034C
:1032C000009739F4F0932503E093240302C020E033
:1032D00030E0C901DF91CF911F910F9108950F93B5
:1032E0001F93CF93DF938C01EB018B8181FF1BC078
:1032F00082FF0DC02E813F818C819D812817390767
:1033000064F4E881F9810193F983E88306C0E885D4
:10331000F985802F0995009731F48E819F81019660
:103320009F838E8302C00FEF1FEFC801DF91CF9103
:103330001F910F910895FA01AA27283051F12031E9
:1033400081F1E8946F936E7F6E5F7F4F8F4F9F4F39
:10335000AF4FB1E03ED0B4E03CD0670F781F891F7B
:103360009A1FA11D680F791F8A1F911DA11D6A0F49
:10337000711D811D911DA11D20D009F468943F91FC
:103380002AE0269F11243019305D3193DEF6CF01FB
:103390000895462F4770405D4193B3E00FD0C9F7C1
:1033A000F6CF462F4F70405D4A3318F0495D31FD2E
:1033B0004052419302D0A9F7EACFB4E0A695979581
:1033C000879577956795BA95C9F700976105710557
:1033D00008959B01AC010A2E0694579547953795A1
:1033E0002795BA95C9F7620F731F841F951FA01DFB
:1033F0000895EF92FF920F931F93CF93DF93689FEF
:103400008001699F100D789F100D1124C8010E9442
:103410001D1AE82EE7017E01F92EE701209731F011
:103420008E2D60E070E0A8010E94501B7E01CE014D
:10343000CDB7DEB7E6E00C940518CF93DF9382306A
:10344000910510F482E090E0E0912803F0912903C7
:1034500040E050E020E030E026C0608171816817D4
:103460007907E0F06817790781F48281938121154B
:10347000310531F0D90113969C938E9312972BC08E
:10348000909329038093280326C04115510519F014
:103490006417750718F4AB01E901DF019F01728120
:1034A0006381E72FF62F3097C1F64115510501F1E1
:1034B000481B590B4430510580F412968D919C9114
:1034C0001397209719F09B838A8304C09093290354
:1034D00080932803FD01329646C0FD01E40FF51FDD
:1034E000819391934250504011965C934E933BC010
:1034F00020912603309127032115310541F42091B5
:103500000201309103013093270320932603209179
:103510000401309105012115310541F42DB73EB765
:103520004091000150910101241B350BE0912603CD
:10353000F0912703E217F307A0F42E1B3F0B281787
:10354000390778F0AC014E5F5F4F2417350748F01C
:103550004E0F5F1F5093270340932603819391934F
:1035600002C0E0E0F0E0CF01DF91CF910895CF936A
:10357000DF93009709F491C0FC0132971382128205
:1035800060912803709129036115710581F42081F0
:103590003181280F391F80912603909127038217CC
:1035A000930799F5F0932703E093260376C0DB0198
:1035B00080E090E002C0CD01D901AE17BF0748F40A
:1035C00012962D913C91139721153105A1F7CD014C
:1035D00021C0B383A283EF01499159919E01240F29
:1035E000351FA217B30779F42D913C911197240F41
:1035F000351F2E5F3F4F3183208312962D913C91D2
:10360000139733832283009729F4F0932903E093DF
:10361000280343C0DC011396FC93EE9312974D915F
:103620005D91A40FB51FEA17FB0769F42081318172
:10363000240F351F2E5F3F4FEC01398328832281F1
:1036400033813B832A83E0E0F0E002C0FB01BC0150
:10365000DB0112968D919C9113970097B9F79B010E
:103660002E5F3F4F8D919C911197820F931F409138
:103670002603509127034817590779F4309729F406
:10368000109229031092280302C013821282225042
:1036900030403093270320932603DF91CF91089584
:1036A000DC0101C06D9341505040E0F70895F8945B
:0236B000FFCF4A
:0636B20020002A030000C5
:00000001FF
