:100000000C94BB000C94D8000C94D8000C94D8002D
:100010000C94D8000C94D8000C94D8000C94D80000
:100020000C94D8000C94D8000C94D8000C94D800F0
:100030000C94D8000C94D8000C94D8000C94D800E0
:100040000C94D8000C94D8000C941B020C946B02F6
:100050000C94D8000C94D8000C94D8000C94D800C0
:100060000C94D8000C94D8006E616E00696E660026
:1000700000407A10F35A00A0724E18090010A5D45F
:10008000E80000E87648170000E40B54020000CABC
:100090009A3B000000E1F505000080969800000002
:1000A00040420F000000A086010000001027000061
:1000B0000000E803000000006400000000000A00E7
:1000C000000000000100000000002C76D888DC67EA
:1000D0004F0823DFC1DFAE59E1B1B796E5E3E45342
:1000E000C63AE651997696E8E6C28426EB898C9B5F
:1000F00062ED407C6FFCEFBC9C9F40F2BAA56FA5FF
:10010000F490055A2AF75C936B6CF9676DC11BFC80
:10011000E0E40D47FEF520E6B500D0ED902E03009B
:10012000943577050080841E080000204E0A0000E8
:1001300000C80C333333330F986E12831141EF8DA7
:100140002114893BE65516CFFEE6DB18D1844B38E7
:100150001BF77C1D901DA4BBE424203284725E2218
:100160008100C9F124ECA1E53D276364696E6F70DD
:10017000737578585B0011241FBECFEFD8E0DEBF47
:10018000CDBF11E0A0E0B1E0ECE5FCE102C00590DC
:100190000D92AC36B107D9F712E0ACE6B1E001C080
:1001A0001D92AD38B107E1F70E94A3020C942C0E0A
:1001B0000C9400008EBD0DB407FEFDCF08958AEAB1
:1001C0008EBD0DB407FEFDCF8EB5089590917B01D5
:1001D000903841F12FB7F894E0917901F0917A01CC
:1001E000808380917B018F5F80937B018091790177
:1001F00090917A01019690937A01809379018E57BC
:10020000924030F08EEF91E090937A0180937901E3
:100210002FBF20E030E08091C10080628093C10058
:10022000C90108952FEF3FEFF6CF80918002882318
:10023000E1F32FB7F894E0917501F0917601808198
:10024000909180029150909380022FBF2091750170
:10025000309176012F5F3F4F91E02E3F390710F02C
:100260002EE731E03093760120937501282F332754
:1002700027FD3095932F08951092C50089E1809352
:10028000C40086E28093C2008EE791E090937601ED
:100290008093750190937D0180937C018EEF91E0B6
:1002A000909378018093770190937A0180937901FC
:1002B0001092800210927B0188E98093C10008951A
:1002C000809180028823E1F32FB7F894E0917501C3
:1002D000F0917601808190918002915090938002FC
:1002E0002FBF20917501309176012F5F3F4F91E034
:1002F0002E3F390710F02EE731E03093760120933E
:1003000075010895809180028823F1F02FB7F89449
:10031000E0917501F0917601808190918002915079
:10032000909380022FBF20917501309176012F5F4D
:100330003F4F91E02E3F390710F02EE731E0309328
:10034000760120937501089580E0089590917B01D6
:10035000903831F12FB7F894E0917901F0917A015A
:10036000808380917B018F5F80937B0180917901F5
:1003700090917A01019690937A01809379018E573A
:10038000924030F08EEF91E090937A018093790162
:100390002FBF80E09091C10090629093C1000895BA
:1003A0008FEFF8CFFC012081222349F131968EEFA7
:1003B00091E030917B013038D1F04FB7F894A091A3
:1003C0007901B0917A012C9320917B012F5F2093CA
:1003D0007B012091790130917A012F5F3F4F30935B
:1003E0007A01209379012E57324050F44FBF20916B
:1003F000C10020622093C10021912111DACF08951C
:1004000090937A0180937901F1CF65E171E086EEF6
:1004100090E00C9452082FB7F894109280028EE767
:1004200091E090937D0180937C019093760180937D
:1004300075012FBF08951F920F920FB60F921124CE
:100440002F938F939F93EF93FF938091C0008C71B4
:1004500001F5809180028038E1F0E0917C01F0911B
:100460007D018091C600808380917C0190917D0107
:10047000019621E08E3F920710F08EE791E0909375
:100480007D0180937C01809180028F5F8093800248
:1004900018C080918102909182020196909382020D
:1004A000809381028091C600809381021092820223
:1004B00080917E0290917F02019690937F028093BB
:1004C0007E02FF91EF919F918F912F910F900FBE20
:1004D0000F901F9018951F920F920FB60F92112434
:1004E0008F939F93EF93FF9380917B018823B1F0CB
:1004F000E0917701F091780181918093C60082E0CC
:10050000EE37F807C8F4F0937801E0937701809113
:100510007B01815080937B01811105C08091C100D6
:100520008F7D8093C100FF91EF919F918F910F90EC
:100530000FBE0F901F9018958EEF91E09093780169
:1005400080937701E4CF569A559A0E943C010E940D
:100550000502789484B18C6284B924988DE58CBDB1
:100560008DB58E7F8DBD2A982AE02A95F1F700C0BF
:10057000E0E0F1E081918EBD0DB407FEFDCF31E0EA
:10058000E530F307B9F78AE08A95F1F700C02A9AB7
:100590008BE091E00E94E00882E7882E81E0982EAF
:1005A00090E7A92E91E0B92E2EE6C22E21E0D22EA0
:1005B0003CE6E32E31E0F32E09E111E045E2642E42
:1005C00041E0742E57E3452E51E0552EC1E2D1E0B3
:1005D00064E4262E61E0362E9F928F92BF92AF92F6
:1005E000DF92CF92FF92EF921F930F930E940F0919
:1005F000809173018F93809172018F93809171012B
:100600008F93809170018F9380916F018F93809170
:100610006E018F9380916D018F9380916C018F9308
:100620007F926F920E94C9085F924F920E94C90800
:1006300080916C0190916D01992790936D01809349
:100640006C019F938F93DF93CF930E94C908809191
:100650006C018093010180916E0190916F01992747
:1006600090936F0180936E019F938F93DF93CF934D
:100670000E94C90880916E018093020180917001EF
:1006800090917101992790937101809370019F93CC
:100690008F93DF93CF930E94C9088091700180935C
:1006A00003018091720190917301992790937301D6
:1006B000809372012DB73EB72E5D3F4F0FB6F89471
:1006C0003EBF0FBE2DBF9F938F93DF93CF930E94AA
:1006D000C908809172019091730180930401992758
:1006E0009F938F93809103011F928F9380910201BA
:1006F0001F928F93809101011F928F93809100012F
:100700001F928F933F922F920E94C9082A989AE0D5
:100710009A95F1F700C02DB73EB7205F3F4F0FB657
:10072000F8943EBF0FBE2DBFE0E0F1E081918EBD99
:100730000DB407FEFDCF31E0E530F307B9F72A9A93
:100740008AE08A95F1F700C080E691E00E94E00817
:1007500043CFA3E1B0E0EFEAF3E00C942D077C0176
:100760005B018A01FC0117821682838181FD03C02F
:100770006DC3860105C088248394912C8C0E9D1E28
:10078000F7019381F50193FD859193FF81915F01BD
:10079000882309F457C3853239F493FD859193FF7B
:1007A00081915F01853231F4B70190E00E949D088C
:1007B0006801DFCF412C512C20E02032A8F48B328D
:1007C00061F028F4803251F0833271F40BC08D3225
:1007D00039F0803349F4216028C02260246025C0AC
:1007E000286023C0206121C027FD27C0382F305347
:1007F0003A3078F426FF06C0FAE04F9E300D1124FF
:10080000432E13C08AE0589E300D1124532E2062CF
:100810000CC08E3221F426FD15C3206406C08C3630
:1008200011F4206802C0883641F4F50193FD8591EA
:1008300093FF81915F018111C0CF982F9554933020
:1008400018F42061805E06C0982F9556933008F00A
:10085000A1C12F7E26FD02C056E0452E4FE3742E27
:100860007222853619F4F0E47F2A07C0863619F41F
:1008700020E8722A02C041104A9477FE07C03BE389
:10088000341548F0342C339427E00DC087E08415EC
:1008900030F0242D07C027E03CE3332E04C027E0CE
:1008A00097E0492E312C680194E0C90ED11CF80163
:1008B0006081718182819381032DA4010E9464076C
:1008C0008C0129812C8720FF02C023FF07C071FC07
:1008D00008C072FE09C080E2682E07C0BDE26B2E20
:1008E00004C0ABE26A2E01C0612C8C858C70A1F132
:1008F000662011F084E001C083E0851510F0512CD2
:100900000BC0581A73FC08C0B70180E290E00E9447
:100910009D085A94C9F7F3CF662029F0B701862DB8
:1009200090E00E949D083C8533FD03C00CE610E07A
:100930000CC008E610E009C071108052B70190E0C9
:100940000E949D080F5F1F4F02C080E17822F801CE
:1009500084918111F1CF73C277FE0EC0300E2C85C9
:1009600024FF04C08A81813309F43A9413144CF5AE
:1009700038E0331548F12CC076FC2AC0242D30E035
:100980002017310744F00C3F8FEF180724F090E850
:10099000792A01C04A94442049F0E2E0F0E0EC0FEB
:1009A000FD1FE40DF11D80818033A1F377FE10C09F
:1009B000342C3394242D30E00217130744F4401AEA
:1009C00007C03324339404C0F8E03F2E01C0412C0B
:1009D00077FE07C0101611063CF498012F5F3F4FB9
:1009E00005C025E030E002C021E030E0662011F0D3
:1009F0002F5F3F4F442031F0442D50E04F5F5F4F59
:100A0000240F351F452D50E02417350714F4521AD2
:100A100001C0512C872D897049F406C0B70180E2CE
:100A200090E00E949D085A945110F8CF662029F05A
:100A3000B701862D90E00E949D0873FC09C006C096
:100A4000B70180E390E00E949D085A945110F8CFBE
:100A500077FE53C0380117FF02C0612C712C1E862F
:100A60001D86980123193109388B2F871801261804
:100A70003708280C391C642D70E022273327261BE9
:100A8000370B3A8B298B3FEF6316730629F4B701B6
:100A90008EE290E00E949D08061517055CF02F85F8
:100AA00038892615370534F4ED85FE85E20DF31DF2
:100AB000818101C080E331E0631A71082D853E8594
:100AC0002F5F3F4F3E872D8729893A89621673062B
:100AD0002CF0B70190E00E949D08D5CF60167106FA
:100AE00049F49A81963328F4953321F43C8534FDFA
:100AF00001C081E3B70190E04AC08A81813319F0D7
:100B00002C852F7E2C87B70190E00E949D08411014
:100B100005C074FE16C085E490E015C0B7018EE2F2
:100B200090E00E949D08E2E06E2EF401E60DF11DBA
:100B30006394B701808190E00E949D084A94A9F7D0
:100B4000E8CF85E690E0B7010E949D0817FD06C03A
:100B50000115110541F43C8534FF05C0119501953F
:100B600011098DE201C08BE2B70190E00E949D085F
:100B700080E303C08F5F0A5011090A301105D4F7D2
:100B8000B70190E00E949D08B701C801C0960E947D
:100B90009D0855C1833631F0833781F0833509F0E4
:100BA0005EC024C0680182E0C80ED11CF8018081BB
:100BB000898366246394712C840114C06801F2E077
:100BC000CF0ED11CF8010081118126FF03C0642DD6
:100BD00070E002C06FEF7FEFC8012B8B0E944708C7
:100BE0003C012B896FE7462E422217C06801F2E0D4
:100BF000CF0ED11CF8010081118126FF03C0642DA6
:100C000070E002C06FEF7FEFC8012B8B0E943C08A1
:100C10003C012B8950E8452E422A43FC1CC006C0EB
:100C2000B70180E290E00E949D085A94852D90E0E3
:100C300068167906A8F30FC0F80147FC859147FEB6
:100C400081918F01B70190E00E949D0851105A9444
:100C5000F1E06F1A71086114710471F7F0C0843605
:100C600011F0893661F5680127FF09C034E0C30E31
:100C7000D11CF80160817181828193810AC0F2E008
:100C8000CF0ED11CF80160817181882777FD809596
:100C9000982F4FE6742E722297FF09C09095809589
:100CA000709561957F4F8F4F9F4FF0E87F2A2AE024
:100CB00030E0A4010E942609682E681847C08537D5
:100CC00031F43FEE732E72222AE030E024C099EF17
:100CD000792E72228F36B9F020F4883509F0B2C02F
:100CE0000DC0803721F0883709F0ACC002C020E188
:100CF000722A74FE0BC034E0732A08C024FF09C0B6
:100D000086E0782A06C028E030E005C020E130E027
:100D100002C020E132E0680177FE09C094E0C90E0C
:100D2000D11CF801608171818281938108C0F2E059
:100D3000CF0ED11CF8016081718180E090E0A401A8
:100D40000E942609682E6818FFE77F2276FE0BC0F6
:100D5000072D0E7F641450F474FE0AC072FC08C0A4
:100D6000072D0E7E05C0162D072D03C0162D01C0C0
:100D7000142D04FF0CC0FE01E60DF11D80818033AF
:100D800011F4097E08C002FF05C01E5F04C0802F59
:100D9000867809F01F5F03FD12C000FF0DC0462CCE
:100DA000151550F4450C411A152D06C0B70180E207
:100DB00090E00E949D081F5F1515C0F304C0151533
:100DC00010F4511A01C0512C04FF10C0B70180E388
:100DD00090E00E949D0802FF1EC001FF03C088E54D
:100DE00090E002C088E790E0B7010CC0802F8678C1
:100DF00091F001FD02C080E201C08BE207FD8DE2AF
:100E0000B70190E00E949D0806C0B70180E390E022
:100E10000E949D084A946414C0F36A94F401E60D9C
:100E2000F11DB701808190E00E949D086110F5CF0F
:100E300006C0B70180E290E00E949D085A945110CC
:100E4000F8CF97CCF7012681378102C02FEF3FEF13
:100E5000C9016396E2E10C9449072F923F924F92A9
:100E60005F926F927F928F929F92AF92BF92CF923A
:100E7000DF92EF92FF920F931F93CF93DF93CDB743
:100E8000DEB7CA1BDB0B0FB6F894DEBF0FBECDBFBB
:100E900009942A88398848885F846E847D848C848C
:100EA0009B84AA84B984C884DF80EE80FD800C8195
:100EB0001B81AA81B981CE0FD11D0FB6F894DEBF78
:100EC0000FBECDBFED010895283008F027E033278D
:100ED000DA01990F311D87FD91600096610571055A
:100EE00039F432602E5F3D9330E32A95E1F708959F
:100EF0009F3F30F080387105610509F03C5F3C5F31
:100F00003D93913008F08068911DDF93CF931F933C
:100F10000F93FF92EF92192F987F9695E92F969550
:100F20009695E90FFF27E653FF4F99273327EE24C5
:100F3000FF24A701E70105900894079428F4360FD1
:100F4000E71EF81E491F511D660F771F881F991F46
:100F50000694A1F70590079428F4E70EF81E491FA0
:100F6000561FC11D770F881F991F661F0694A1F792
:100F70000590079428F4F80E491F561FC71FD11D6E
:100F8000880F991F661F771F0694A1F70590079495
:100F900020F4490F561FC71FD81F990F661F771FD0
:100FA000881F0694A9F784911095177041F0D69583
:100FB000C79557954795F794E7941A95C1F7E0E7D9
:100FC000F0E0689415901591359165919591059093
:100FD0007FE27395E118F10A430B560BC90BD00958
:100FE000C0F7E10CF11E431F561FC91FD01D7EF430
:100FF000703311F48A95E6CFE894015030F0080F71
:101000000AF40027021708F4202F2395022F7A33C1
:1010100028F079E37D932A95E9F710C07D932A950E
:1010200089F6069497956795379517951794E11863
:10103000F10A430B560BC90BD00998F023957E910A
:1010400073957A3308F070E37C932013B8F77E91A0
:1010500070617D9330F0839571E37D9370E32A9501
:10106000E1F71124EF90FF900F911F91CF91DF9145
:10107000992787FD90950895FC0105906150704077
:101080000110D8F7809590958E0F9F1F0895FC0151
:101090006150704001900110D8F7809590958E0FA7
:1010A0009F1F08950F931F93CF93DF93EC018B0144
:1010B000009731F46115710519F4E0E0F0E037C0F4
:1010C0006EE070E081E090E00E945F0CFC01009710
:1010D000A1F380E883830115110571F0138702875E
:1010E00081E883838091830290918402892B21F48B
:1010F000F0938402E09383022097C9F0D187C087E0
:101100008381826083838091850290918602892BFE
:1011100071F4F0938602E0938502809187029091AA
:101120008802892B21F4F0938802E0938702CF0193
:10113000DF91CF911F910F9108950F931F93CF933C
:10114000DF938C01EB018B8181FD03C00FEF1FEF5B
:101150001AC082FF0DC02E813F818C819D8128178E
:10116000390764F4E881F9810193F983E88306C0C3
:10117000E885F985802F0995892B41F78E819F811C
:1011800001969F838E83C801DF91CF911F910F91AC
:101190000895A2E0B0E0EFECF8E00C943D07FE010A
:1011A000379661917191FA83E983AF01809185024D
:1011B000909186020E94A9032296E2E00C945907BE
:1011C0000F931F93CF93DF938C01E0918502F091F1
:1011D0008602838181FF1BC0C0E0D0E005C0099575
:1011E000892B11F0CFEFDFEFF80181918F01609132
:1011F000850270918602DB011896ED91FC9119979A
:101200008111EDCF8AE00995892B09F402C0CFEF57
:10121000DFEFCE01DF91CF911F910F910895A2E0F2
:10122000B0E0E5E1F9E00C943D07FE0137966191ED
:101230007191FA83E983AF018091830290918402D6
:101240000E94310B2296E2E00C945907FA01AA277A
:10125000283051F1203181F1E8946F936E7F6E5FF9
:101260007F4F8F4F9F4FAF4FB1E03ED0B4E03CD0A7
:10127000670F781F891F9A1FA11D680F791F8A1F8A
:10128000911DA11D6A0F711D811D911DA11D20D0F1
:1012900009F468943F912AE0269F11243019305DAB
:1012A0003193DEF6CF010895462F4770405D41939C
:1012B000B3E00FD0C9F7F6CF462F4F70405D4A33E9
:1012C00018F0495D31FD4052419302D0A9F7EACFB1
:1012D000B4E0A6959795879577956795BA95C9F7E0
:1012E00000976105710508959B01AC010A2E0694D3
:1012F0005795479537952795BA95C9F7620F731F8C
:10130000841F951FA01D089520FD09C0FC0123FD29
:1013100005C022FF02C07383628351834083089516
:10132000CF92DF92EF92FF920F931F9344FD10C074
:1013300046FD10C0DB01FC01AA0FBB1FEE1FFF1F03
:101340001094D1F76A0F7B1F8E1F9F1F31E003C0DF
:1013500033E001C034E0660F771F881F991F3150BA
:10136000D1F76B017C01C20ED11CE11CF11C97016D
:101370008601B601C9011F910F91FF90EF90DF9098
:10138000CF9008950F931F93CF93DF938C01C801E3
:101390000E94CE0DEC0197FD08C00E94B40D892B70
:1013A000B1F7B801CE010E940E0ECE01DF91CF91B0
:1013B0001F910F9108958F929F92AF92CF92DF92DB
:1013C000EF92FF920F931F93CF93DF93EC01A62E22
:1013D0004A01022F0E94CE0DFC01FF27EB32F105DE
:1013E00019F0BD9751F40068AA9411F480E063C02D
:1013F000CE010E94CE0D97FDF9CF102F1D7F302F0B
:101400003073E1F48033D1F4AA9409F440C0CE01E2
:101410000E94CE0D97FD3BC0883711F0883549F406
:101420001264AA94A1F1CE010E94CE0D97FF06C0CE
:101430002EC006FF02C0126001C01261C12CD12C67
:101440007601282F2053283080F014FF04C0BE01FD
:101450000E940E0E19C02A3040F016FFF8CF2F7DE3
:10146000322F3151363098F72750412FC701B6013E
:101470000E9490096B017C011260AA9459F0CE0180
:101480000E94CE0D97FFDDCF11FD04C0AFCFC12C60
:10149000D12C760117FF08C0F094E094D094C0944A
:1014A000C11CD11CE11CF11C212FB701A601C401F4
:1014B0000E94840981E0DF91CF911F910F91FF90ED
:1014C000EF90DF90CF90AF909F908F9008956F92A4
:1014D0007F929F92AF92BF92CF92DF92EF92FF9254
:1014E0000F931F93CF93DF93CDB7DEB7A1970FB6BE
:1014F000F894DEBF0FBECDBF6C017A018901FE01F9
:10150000319680E2DF011D928A95E9F7D6011396A4
:101510009C9020E030E0A12CA0E0B12CCF0141E074
:1015200050E0F80193FC759193FE71918F01711158
:1015300003C000E010E080C07E3519F421153105AC
:1015400059F1EB2DF0E0E217F3073CF47D3569F13A
:101550007D3219F4AA2319F103C0A11101C0A72EED
:10156000E72FE695E695E6953C016E0E711CF301BA
:10157000A72FA7703A0102C0660C771CAA95E2F764
:10158000D301B081BA2BB0837A1559F07A1510F4D3
:101590007F5FE6CF7150E4CFBB24B39403C0A1E0DA
:1015A00001C0A0E02F5F3F4FBCCFAA2319F08E816E
:1015B00080628E83B11003C0BB24B3940BC0FE01C4
:1015C0003196CE018196208120952193E817F90765
:1015D000D1F7F2CFC60169A30E94CE0D69A197FD94
:1015E00024C0282F269526952695E1E0F0E0EC0F03
:1015F000FD1FE20FF11D208130E0AC01477055273F
:1016000002C0359527954A95E2F720FD04C0B60142
:101610000E940E0E0AC0E114F10419F0D7018D9357
:101620007D016150B12CB1F602C0B11082CFE1143E
:10163000F10411F0F7011082C801A1960FB6F894D9
:10164000DEBF0FBECDBFDF91CF911F910F91FF90F5
:10165000EF90DF90CF90BF90AF909F907F906F9072
:1016600008954F925F927F928F929F92AF92BF9216
:10167000CF92DF92EF92FF920F931F93CF93DF935E
:101680001F92CDB7DEB78C012B015A01FC011782E6
:101690001682812CF0C08E2D90E00E94B40D892B13
:1016A00021F0C8010E94C209E6C0F5E2EF120AC0AB
:1016B000F201F3FC3591F3FE31912F01353271F4D3
:1016C00055E2E52EC8010E94CE0D97FDDFC0E81659
:1016D00009F4D1C0B8010E940E0EDAC03A3241F4CA
:1016E000F3FC3591F3FE31912F019924939401C0BD
:1016F000912C712C10C0F2E09F2A672D70E080E0E1
:1017000090E040E20E949009762EF201F3FC3591C0
:10171000F3FE31912F01232F20532A3060F391FEE5
:1017200003C0711003C0B4C077247A94383619F01E
:101730003C3699F40AC0F201F3FC3591F3FE319185
:101740002F01383651F4F8E09F2A84E0982AF201FC
:10175000F3FC3591F3FE31912F01332309F498C046
:10176000632F70E08AE691E039830E94BC0D3981D5
:10177000892B09F48DC090FC07C0F501E080F18051
:1017800082E0A80EB11C02C0E12CF12C3E3651F4CF
:10179000F8014681578160E070E0292DC7010E9461
:1017A000840969C0333691F491FC02C077247394A4
:1017B000C8010E94CE0D97FD69C0E114F10419F033
:1017C000F70181937F017A9499F753C03B3559F41F
:1017D0009201A701672DC8010E94670A2C0100979A
:1017E00009F047C041C0C80139830E94C20939814C
:1017F00097FD4CC03F3659F128F4343629F139367B
:1018000049F52AC0333719F0353721F51DC0C80115
:101810000E94CE0D6C0197FD11C00E94B40D892B62
:1018200029F0B801C6010E940E0E08C0E114F104AF
:1018300019F0F701C1927F017A9449F7E114F1049C
:10184000C1F0F701108215C0F0E29F2A05C080E1C7
:10185000982A02C090E4992A292DA701672DC80172
:101860000E94DB09811105C0F8018381807371F446
:101870000FC090FE8394F801F380F201F3FCE59031
:10188000F3FEE1902F01E11006CF02C0882019F08D
:10189000282D30E002C02FEF3FEFC9010F90DF91FC
:1018A000CF911F910F91FF90EF90DF90CF90BF905D
:1018B000AF909F908F907F905F904F9008950F937F
:1018C0001F93CF93DF93689F8001699F100D789FCE
:1018D000100D1124C8010E947D0CC82FD92F20970C
:1018E00031F0A80160E070E08C2F0E94C70DCE019E
:1018F000DF91CF911F910F9108950F931F93CF9375
:10190000DF938230910510F482E090E0E0918B0249
:10191000F0918C0220E030E0C0E0D0E023C04081B4
:10192000518148175907A8F04817590761F4828177
:101930009381209719F09B838A832EC090938C0209
:1019400080938B0229C02115310529F042175307D6
:1019500010F0A90102C0BE01DF0102811381EF0175
:101960009A01F8013097D9F62115310509F1281BA4
:10197000390B2430310590F412968D919C91139778
:101980006115710521F0FB019383828304C090935C
:101990008C0280938B02FD01329644C0FD01E20F60
:1019A000F31F81939193225031092D933C933AC0B8
:1019B0002091890230918A02232B41F42091070162
:1019C0003091080130938A02209389022091050109
:1019D000309106012115310541F42DB73EB74091F4
:1019E000090150910A01241B350BE0918902F09105
:1019F0008A02E217F307A0F42E1B3F0B28173907C2
:101A000078F0AC014E5F5F4F2417350748F04E0F5A
:101A10005F1F50938A02409389028193919302C081
:101A2000E0E0F0E0CF01DF91CF911F910F91089599
:101A3000EF92FF920F931F93CF93DF93009709F4D8
:101A40008EC0DC01129713961C921E921297E090A2
:101A50008B02F0908C02E114F10489F42D913C91F9
:101A60001197280F391F8091890290918A0282175D
:101A7000930789F5B0938A02A093890270C0E701A9
:101A800020E030E001C0EA01CA17DB0738F44A81E0
:101A90005B819E0141155105B1F722C0AC01425056
:101AA0005109FA01D383C28300811181BC01600F07
:101AB000711F6C177D0761F468817981600F711F58
:101AC0006E5F7F4F718360836A817B8173836283E2
:101AD0002115310529F4B0938C02A0938B023FC0ED
:101AE000F901B383A283E90149915991C40FD51F2C
:101AF000AC17BD0771F4DC019E918E91840F951F88
:101B000002969183808312968D919C911397938373
:101B10008283A0E0B0E002C0D7017C01F70182819E
:101B200093810097C9F7C701029620813181820F06
:101B3000931F2091890230918A022817390779F47E
:101B4000109729F410928C0210928B0204C0139605
:101B50001C921E921297F0928A02E0928902CDB7EF
:101B6000DEB7E6E00C945507911173C0803219F08E
:101B700089508550D0F70895FC010590061621F094
:101B80000020D9F7C00108953197CF010895DC01F5
:101B900001C06D9341505040E0F70895CF93DF931B
:101BA000EC013B8130FF34C036FF0AC03F7B3B83F2
:101BB0008E819F8101969F838E832A8130E02AC087
:101BC00032FF0FC0E881F9818081992787FD9095C8
:101BD000009719F430623B831BC03196F983E88388
:101BE0000EC0EA85FB85099597FF09C02B810196F8
:101BF00011F480E101C080E2822B8B8309C02E8129
:101C00003F812F5F3F4F3F832E839C01332702C0CC
:101C10002FEF3FEFC901DF91CF910895FB012381A1
:101C200020FF13C026FD11C08F3F3FEF930769F0DF
:101C300082832F7D206423832681378121503109BF
:101C4000378326839C01332702C02FEF3FEFC90162
:0C1C50000895992788270895F894FFCF85
:101C5C0000C8C8C8C800008D022000466F757220ED
:101C6C006E756D626572733F002575202575202594
:101C7C007520257500476F74202575202575202546
:101C8C00752025752E0A005472756E636174656437
:101C9C0020746F003B204461746120617272617921
:101CAC0020697320255825582558255825580A0091
:0C1CBC00446174612073656E742E00009A
:00000001FF
