:100000000C943A000C9457000C9457000C94570031
:100010000C9457000C9457000C9457000C94570004
:100020000C9457000C9457000C9457000C945700F4
:100030000C9457000C9457000C9457000C945700E4
:100040000C9457000C9457000C941B020C946602FD
:100050000C9457000C9457000C9457000C945700C4
:100060000C9457000C9457006364696E6F7073753D
:1000700078585B0011241FBECFEFD8E0DEBFCDBFA4
:1000800011E0A0E0B1E0E0EFFFE002C005900D92CA
:10009000AA30B107D9F711E0AAE0B1E001C01D9282
:1000A000A23AB107E1F70E9459000C94F6070C94AC
:1000B00000000F931F93CF93DF9388E290E067E2F5
:1000C00070E045E024E00E94F8000E94140200E085
:1000D00011E0CAE0D1E000D000D0EDB7FEB7128346
:1000E0000183D483C3830E94F1020F900F900F907D
:1000F0000F9080910A0190E00E94EA02ECCF90916B
:100100001201903489F1F894E0910F01F0911001FF
:100110008083809112018F5F809312017894809187
:100120000F019091100101969093100180930F019F
:1001300021E08539920778F085E591E090931001F0
:1001400080930F0120E030E08091C10080628093B5
:10015000C100C901089520E030E08091C1008062B3
:100160008093C100C90108952FEF3FEF8091C10036
:1001700080628093C100C901089580919501882310
:10018000E1F3F894E0910B01F0910C0180819091E2
:10019000950191509093950190919501983389F430
:1001A000E0919601F0919701908121E030E000907C
:1001B000110102C0220F331F0A94E2F72095292370
:1001C0002083789420910B0130910C012F5F3F4FD9
:1001D00030930C0120930B0191E02535390730F065
:1001E00025E131E030930C0120930B0190E008955C
:1001F000FC01DB01409311019093970180939601DC
:100200001092C50087E68093C40086E08093C20008
:1002100085E191E090930C0180930B019093140180
:100220008093130185E591E090930E0180930D0179
:100230009093100180930F0110929501109212017A
:1002400088E98093C1002C9181E090E002C0880F82
:10025000991F4A95E2F7282B2C939081809589234A
:10026000808378940895809195018823E1F3F89430
:10027000E0910B01F0910C018081909195019150DA
:100280009093950190919501983389F4E0919601AE
:10029000F0919701908121E030E00090110102C0BF
:1002A000220F331F0A94E2F72095292320837894A4
:1002B00020910B0130910C012F5F3F4F30930C01C7
:1002C00020930B0191E02535390730F025E131E02D
:1002D00030930C0120930B010895809195018823A0
:1002E000B9F1F894E0910B01F0910C0180819091AB
:1002F0009501915090939501909195019833B1F0AB
:10030000789420910B0130910C012F5F3F4F309377
:100310000C0120930B0191E025353907D0F025E140
:1003200031E030930C0120930B010895E091960188
:10033000F0919701908121E030E00090110102C01E
:10034000220F331F0A94E2F7209529232083D8CF68
:1003500080E0089590911201903469F1F894E09151
:100360000F01F09110018083809112018F5F8093C3
:100370001201789480910F01909110010196909351
:10038000100180930F0121E08539920768F085E51F
:1003900091E09093100180930F0180E09091C10053
:1003A00090629093C100089580E09091C1009062A6
:1003B0009093C10008958FEF9091C1009062909347
:1003C000C1000895FC012081222369F1319685E561
:1003D00091E0309112013034F1F0F894A0910F01C6
:1003E000B09110012C93209112012F5F20931201E4
:1003F000789420910F01309110012F5F3F4F30937F
:10040000100120930F0141E02539340720F090932B
:10041000100180930F012091C10020622093C10040
:1004200021912223B1F608958FE790E06DEB70E003
:100430000E949F0208951F920F920FB60F921124EF
:100440002F938F939F93EF93FF9380919501803427
:1004500098F5E0911301F09114018091C60080831A
:10046000809113019091140101969093140180934F
:10047000130121E08535920730F085E191E09093FA
:10048000140180931301809195018F5F80939501F2
:1004900080919501883380F0E0919601F091970169
:1004A000208181E090E00090110102C0880F991F27
:1004B0000A94E2F7282B2083FF91EF919F918F916F
:1004C0002F910F900FBE0F901F9018951F920F92B3
:1004D0000FB60F9211248F939F93EF93FF93809108
:1004E00012018823F1F0E0910D01F0910E0181914C
:1004F0008093C600F0930E01E0930D0181E0E53991
:10050000F80730F085E591E090930E0180930D019E
:1005100080911201815080931201809112018823F1
:1005200029F48091C1008F7D8093C100FF91EF91EC
:100530009F918F910F900FBE0F901F9018950F9362
:100540001F93CF93DF938C01EB01009711F4209759
:10055000C9F181E090E06EE070E00E94C205FC010C
:100560009C01009789F180E88383209771F0D387FD
:10057000C28781E8838380919801909199010097C7
:1005800021F4F0939901E093980101151105E1F030
:100590001187008783818260838380919A01909183
:1005A0009B01009789F4F0939B01E0939A0180915D
:1005B0009C0190919D01009739F4F0939D01E09387
:1005C0009C0102C020E030E0C901DF91CF911F9172
:1005D0000F91089560919A0170919B010E94750797
:1005E0000895A0E0B0E0E7EFF2E00C94CF07FE0141
:1005F0003596619171918091980190919901AF0127
:100600000E949B042096E2E00C94EB0720FD09C0B9
:10061000FC0123FD05C022FF02C073836283518366
:1006200040830895EF92FF920F931F9344FD10C0F3
:1006300046FD10C0DB01FC01AA0FBB1FEE1FFF1F10
:100640001094D1F76A0F7B1F8E1F9F1F31E003C0EC
:1006500033E001C034E0660F771F881F991F3150C7
:10066000D1F77B018C01E20EF11C011D111DA801C7
:100670009701B701CA011F910F91FF90EF90089564
:10068000EF92FF920F931F93CF93DF938C01C801DA
:100690000E943307EC0197FD09C00E9419070097DB
:1006A000B1F77E01CE01B8010E94A107CE01CDB7FE
:1006B000DEB7E6E00C94E7078F929F92AF92BF926D
:1006C000DF92EF92FF920F931F93DF93CF930F92DE
:1006D000CDB7DEB74C01D62E5A01122F0E94330738
:1006E0008B3219F08D3249F41068DA9409F46CC039
:1006F000C4010E94330797FD67C0312F3D7F232F30
:100700002073F1F48033E1F4DA9409F448C0C401B1
:1007100039830E943307398197FD41C032608837A1
:1007200011F0883559F43064DA94C9F1C401398381
:100730000E943307398197FF03C031C036FF306113
:10074000EE24FF248701282F2053283090F034FD19
:1007500009C02A3070F036FF05C02F7D422F41516D
:10076000463030F0B40139830E94A107398114C0AA
:100770002750C801B701432F39830E9412037B0120
:100780008C0139813260DA9469F0C40139830E94A6
:100790003307398197FFD7CF31FD04C015C0EE2450
:1007A000FF24870137FF08C010950095F094E0946E
:1007B000E11CF11C011D111DC501B801A701232F6A
:1007C0000E94060381E001C080E00F90CF91DF918D
:1007D0001F910F91FF90EF90DF90BF90AF909F908F
:1007E0008F900895A1E2B0E0E8EFF3E00C94C30726
:1007F0006C018A0179019E012F5F3F4F80E2F90170
:1008000011928A95E9F7F601838080E090E0BB249D
:10081000992470E0A1E0B0E0F70183FCA59083FE8D
:10082000A1907F01AA2009F47FC0FA2DFE3511F4B2
:10083000009751F1472F50E04817590744F44A2DCB
:100840004D3551F14D3219F4992001F103C0992031
:1008500009F4BA2C4A2D469546954695F901E40FC0
:10086000F11D4A2D47703D0102C0660C771C4A9568
:10087000E2F7908096289082AB1459F0AB1410F4F4
:10088000A394E8CFAA94E6CF71E004C0992493948E
:1008900001C099240196C0CF992019F08E81806201
:1008A0008E83772351F0CE018196FE01319620810F
:1008B00020952193E817F907D1F7BB24B3944E0193
:1008C0000894811C911C01C0BB24C60169A30E942D
:1008D000330769A197FD20C0282F269526952695D8
:1008E000F401E20FF11D208130E0AC01477050703F
:1008F00002C0359527954A95E2F720FD04C0B60160
:100900000E94A10709C00115110519F0F801819392
:100910008F016150C9F602C0BB2031F401151105E9
:1009200029F0F801108202C0EE24FF24C701A1962D
:10093000EEE00C94DF074F925F926F927F929F924E
:10094000AF92BF92CF92DF92EF92FF920F931F93DD
:10095000DF93CF930F92CDB7DEB77C016B013A01E5
:10096000FC011782168200E0E9C0812F90E00E940E
:100970001907009721F0C7010E944003DFC015321C
:1009800041F4F601A3FC3591A3FE31916F0135329C
:1009900061F4C7010E94330797FDDCC0181709F402
:1009A000CDC0B7010E94A107D7C03A3239F4A3FCE9
:1009B0003591A3FE31916F0111E001C010E099243F
:1009C0000FC01260692D70E080E090E040E20E946C
:1009D0001203962EF601A3FC3591A3FE31916F010F
:1009E000232F20532A3068F311FF03C0992019F4F4
:1009F000B3C099249A94383619F03C3689F409C06A
:100A0000F601A3FC3591A3FE31916F01383641F414
:100A100018601460F601A3FC3591A3FE31916F01BB
:100A2000332309F499C088E690E0632F70E039839E
:100A30000E9421073981009709F48EC0812F10FD93
:100A400008C0F3014080518042E050E0640E751E02
:100A500002C0442455243E3651F4F70146815781A3
:100A600060E070E0C201212F0E94060367C03336A8
:100A700091F481FD02C099249394C7010E94330729
:100A800097FD68C04114510419F0F20181932F01C0
:100A90009A9499F751C03B3559F4C701692DA201C9
:100AA00096010E94F2036C01009709F045C03FC017
:100AB000C70139830E944003398197FD4BC03F36FF
:100AC00059F1303728F4343629F1393639F527C051
:100AD000333719F0353711F51DC0C7010E943307B0
:100AE0005C0197FD11C00E941907009729F0C5010C
:100AF000B7010E94A10708C04114510419F0F20186
:100B0000A1922F019A9449F741145104A9F0F201DE
:100B1000108212C0106203C0106101C01064C701CE
:100B2000692DA201212F0E945C03882329F4F7017B
:100B30008381807379F410C010FF0F5FF701A380E9
:100B4000F601A3FC1591A3FE11916F01112309F089
:100B50000CCF02C0002311F010E002C00FEF1FEF16
:100B6000C8010F90CF91DF911F910F91FF90EF90EF
:100B7000DF90CF90BF90AF909F907F906F905F90ED
:100B80004F900895EF92FF920F931F93CF93DF93AF
:100B9000689F8001699F100D789F100D1124C80176
:100BA0000E94E605E82EE7017E01F92EE701209775
:100BB00031F08E2D60E070E0A8010E942C077E01CC
:100BC000CE01CDB7DEB7E6E00C94E707CF93DF9315
:100BD0008230910510F482E090E0E091A001F09164
:100BE000A10140E050E020E030E026C0608171814A
:100BF00068177907E0F06817790781F4828193819B
:100C00002115310531F0D90113969C938E931297DB
:100C10002BC09093A1018093A00126C041155105DE
:100C200019F06417750718F4AB01E901DF019F01A2
:100C300072816381E72FF62F3097C1F64115510578
:100C400001F1481B590B4430510580F412968D91E7
:100C50009C911397209719F09B838A8304C09093EB
:100C6000A1018093A001FD01329646C0FD01E40F71
:100C7000F51F819391934250504011965C934E938F
:100C80003BC020919E0130919F012115310541F417
:100C9000209105013091060130939F0120939E0120
:100CA00020910701309108012115310541F42DB73C
:100CB0003EB74091030150910401241B350BE09194
:100CC0009E01F0919F01E217F307A0F42E1B3F0B4A
:100CD0002817390778F0AC014E5F5F4F24173507AE
:100CE00048F04E0F5F1F50939F0140939E018193E8
:100CF000919302C0E0E0F0E0CF01DF91CF91089541
:100D0000CF93DF93009709F491C0FC0132971382CF
:100D100012826091A0017091A1016115710581F4A9
:100D200020813181280F391F80919E0190919F0170
:100D30008217930799F5F0939F01E0939E0176C087
:100D4000DB0180E090E002C0CD01D901AE17BF0702
:100D500048F412962D913C91139721153105A1F776
:100D6000CD0121C0B383A283EF01499159919E0126
:100D7000240F351FA217B30779F42D913C911197D9
:100D8000240F351F2E5F3F4F3183208312962D9104
:100D90003C91139733832283009729F4F093A101A8
:100DA000E093A00143C0DC011396FC93EE931297ED
:100DB0004D915D91A40FB51FEA17FB0769F42081DF
:100DC0003181240F351F2E5F3F4FEC01398328837B
:100DD000228133813B832A83E0E0F0E002C0FB0103
:100DE000BC01DB0112968D919C9113970097B9F786
:100DF0009B012E5F3F4F8D919C911197820F931F06
:100E000040919E0150919F014817590779F43097FE
:100E100029F41092A1011092A00102C01382128243
:100E20002250304030939F0120939E01DF91CF915B
:100E300008959111A1C0803219F089508550D0F7E2
:100E40000895FC010590061621F00020D9F7C00195
:100E500008953197CF010895DC0101C06D93415091
:100E60005040E0F70895CF93DF93EC013B8130FFD2
:100E700036C036FF09C03F7B3B838E819F81019640
:100E80009F838E832A8129C032FF0FC0E881F981B8
:100E90008081992787FD9095009719F430623B83F4
:100EA0001EC03196F983E88311C0EA85FB85CE0127
:100EB000099597FF0BC02B813FEF8F3F930711F4EC
:100EC00080E101C080E2822B8B8309C02E813F81AB
:100ED0002F5F3F4F3F832E83282F30E002C02FEF3C
:100EE0003FEFC901DF91CF9108950F931F93CF93E7
:100EF000DF938C01EB018B8181FF1BC082FF0DC052
:100F00002E813F818C819D812817390764F4E88107
:100F1000F9810193F983E88306C0E885F985802F7C
:100F20000995009731F48E819F8101969F838E836E
:100F300002C00FEF1FEFC801DF91CF911F910F91FA
:100F40000895FB01238120FF13C026FD11C03FEF50
:100F50008F3F930769F0828320642F7D238326814E
:100F600037812150304037832683282F30E002C05C
:100F70002FEF3FEFC90108959927882708952F92F1
:100F80003F924F925F926F927F928F929F92AF9219
:100F9000BF92CF92DF92EF92FF920F931F93CF9366
:100FA000DF93CDB7DEB7CA1BDB0B0FB6F894DEBFFD
:100FB0000FBECDBF09942A88398848885F846E8423
:100FC0007D848C849B84AA84B984C884DF80EE806D
:100FD000FD800C811B81AA81B981CE0FD11D0FB676
:100FE000F894DEBF0FBECDBFED010895F894FFCF9A
:0A0FF0002563002000A201000000AC
:00000001FF
