:100000000C943A000C9457000C9457000C94570031
:100010000C9457000C9457000C9457000C94570004
:100020000C9457000C9457000C9457000C945700F4
:100030000C9457000C9457000C9457000C945700E4
:100040000C9457000C9457000C9496010C94D0011A
:100050000C9457000C9457000C9457000C945700C4
:100060000C9457000C9457006364696E6F7073753D
:1000700078585B0011241FBECFEFD8E0DEBFCDBFA4
:1000800011E0A0E0B1E0EAE0F4E102C005900D92D9
:10009000AC31B107D9F712E0ACE1B1E001C01D927B
:1000A000A833B107E1F70E9409020C94030A0C94EB
:1000B0000000809128028823E1F32FB7F894E091A3
:1000C0001C01F0911D018081909128029150909324
:1000D00028022FBF20911C0130911D012F5F3F4F3F
:1000E00030931D0120931C0191E0263A390730F02E
:1000F00026E231E030931D0120931C0190E0089529
:1001000090912301903849F12FB7F894E0912001A4
:10011000F09121018083809123018F5F80932301DF
:10012000809120019091210101969093210180936B
:10013000200132E08632930730F086EA91E0909316
:100140002101809320012FBF20E030E08091C10089
:1001500080628093C100C90108952FEF3FEF809125
:10016000C10080628093C100C90108951092C5004A
:1001700087E68093C40086E08093C20086E291E027
:1001800090931D0180931C0190932501809324017D
:1001900086EA91E090931F0180931E0190932101C4
:1001A000809320011092280210922301559888E92B
:1001B0008093C10078940895809128028823E1F308
:1001C0002FB7F894E0911C01F0911D01808190916E
:1001D00028029150909328022FBF20911C0130914A
:1001E0001D012F5F3F4F30931D0120931C0191E0B3
:1001F000263A390730F026E231E030931D01209392
:100200001C01089580912802882311F12FB7F894DA
:10021000E0911C01F0911D01808190912802915084
:10022000909328022FBF20911C0130911D012F5F58
:100230003F4F30931D0120931C0191E0263A39076E
:1002400040F026E231E030931D0120931C01089517
:1002500080E0089590912301903839F12FB7F894F8
:10026000E0912001F09121018083809123018F5F33
:100270008093230180912001909121010196909318
:1002800021018093200132E08632930730F086EA24
:1002900091E090932101809320012FBF80E0909105
:1002A000C10090629093C10008958FEF9091C100BA
:1002B00090629093C1000895FC018081882349F1E8
:1002C000319626EA31E0909123019038D1F04FB772
:1002D000F894A0912001B09121018C938091230189
:1002E0008F5F8093230180912001909121010196DD
:1002F000909321018093200152E08632950750F4BB
:100300004FBF8091C10080628093C100819188239A
:10031000D1F608953093210120932001F1CF80E898
:1003200090E069E570E00E94430208951F920F92E9
:100330000FB60F9211242F938F939F93EF93FF93F8
:100340005D9A8091280287FD19C0E0912401F09107
:1003500025018091C6008083809124019091250120
:100360000196909325018093240121E0863A92071B
:1003700080F4809128028F5F809328025D98FF911E
:10038000EF919F918F912F910F900FBE0F901F9023
:10039000189586E291E09093250180932401E9CF9E
:1003A0001F920F920FB60F9211248F939F93EF938A
:1003B000FF93809123018823F1F0E0911E01F091D9
:1003C0001F0181918093C600F0931F01E0931E01ED
:1003D00082E0E632F80730F086EA91E090931F0160
:1003E00080931E018091230181508093230180918D
:1003F0002301882329F48091C1008F7D8093C1005F
:10040000FF91EF919F918F910F900FBE0F901F90D2
:100410001895EF92FF920F931F93CF93DF938BE288
:1004200090E06AE270E045E026E00E94B6000E949B
:100430008F0180E0E82E81E0F82E0DE212E0C3E0AB
:10044000D1E000D000D0ADB7BEB71296FC92EE92CC
:10045000119714961C930E9313970E94A302EDB765
:10046000FEB73196ADB7BEB71296DC93CE93119717
:1004700080912D02828313820E948E020F900F9032
:100480000F900F90DECF0F931F93CF93DF938C01CC
:10049000EB01009711F42097C9F181E090E06EE044
:1004A00070E00E945B07FC019C01009789F180E8E5
:1004B0008383209771F0D387C28781E883838091FB
:1004C0002E0290912F02009721F4F0932F02E093D7
:1004D0002E0201151105E1F01187008783818260EA
:1004E00083838091300290913102009789F4F093D8
:1004F0003102E093300280913202909133020097F2
:1005000039F4F0933302E093320202C020E030E08D
:10051000C901DF91CF911F910F910895A0E0B0E044
:10052000E4E9F2E00C94DC09FE01359661917191E9
:100530008091300290913102AF010E94B802209662
:10054000E2E00C94F809A0E0B0E0E9EAF2E00C94F3
:10055000DC09FE0135966191719180912E02909196
:100560002F02AF010E9434062096E2E00C94F809B5
:10057000ACE0B0E0EEEBF2E00C94CC096C011B01B6
:100580008A01FC0117821682838181FFD1C12E016D
:100590000894411C511CF6019381F10193FD859152
:1005A00093FF81911F01882309F4BEC1853239F47C
:1005B00093FD859193FF81911F01853229F490E08D
:1005C000B6010E942409E7CFEE24FF2420E0203268
:1005D000B0F48B3269F08C3228F4803251F08332DF
:1005E00071F40BC08D3239F0803349F421602CC096
:1005F0002260246029C0286027C0206125C027FD13
:100600002CC0382F30533A3098F426FF08C08E2D76
:10061000880FE82EEE0CEE0CE80EE30E15C08F2DC1
:10062000880FF82EFF0CFF0CF80EF30E20620CC0A2
:100630008E3221F426FD78C1206406C08C3611F478
:10064000206802C0883649F4F10193FD859193FF3B
:1006500081911F01882309F0BACF982F95549330C8
:1006600018F09052933028F40C5F1F4FFFE3F9838A
:100670000DC0833631F0833771F0833509F060C0E7
:1006800022C0F801808189830E5F1F4F420171E013
:10069000A72EB12C16C062E0662E712C600E711E62
:1006A000F8018080918026FF03C06E2D70E002C0AB
:1006B0006FEF7FEFC4012C870E94D7085C01830194
:1006C0002C852F7717C052E0652E712C600E711E9D
:1006D000F8018080918026FF03C06E2D70E002C07B
:1006E0006FEF7FEFC4012C870E94C5085C012C8549
:1006F0002068830123FD20C008C080E290E0B6019D
:100700002C870E942409FA942C858F2D90E0A8163E
:10071000B90698F311C0F40127FD859127FF819157
:100720004F0190E0B6012C870E9424092C85F1101E
:10073000FA940894A108B108A114B10461F7F1C0BA
:10074000843611F0893649F527FF08C0F801608129
:100750007181828193810C5F1F4F09C0F801608114
:100760007181882777FD8095982F0E5F1F4F4FE688
:10077000B42EB22297FF09C090958095709561952F
:100780007F4F8F4F9F4FF0E8BF2AA2012AE030E051
:100790000E946B09782E741845C0853731F43FEEFE
:1007A000B32EB2222AE030E025C099EFB92EB22252
:1007B0008F36C1F0803720F4883509F0B5C00DC000
:1007C000803721F0883709F0AFC002C020E1B22A9B
:1007D000B4FE0BC084E0B82A08C0B4FE09C0E6E04D
:1007E000BE2A06C028E030E005C020E130E002C0AB
:1007F00020E132E0B7FE08C0F8016081718182819A
:1008000093810C5F1F4F07C0F8016081718180E008
:1008100090E00E5F1F4FA2010E946B09782E7418A2
:10082000FFE7BF22B6FE0BC02EEFB2227E1438F4D3
:10083000B4FE07C0B2FC05C08FEEB82202C0A72CE0
:1008400001C0AE2C8B2D90E0B4FE0DC0FE01E70D73
:10085000F11D2081203319F4E9EEBE2209C0A394D2
:10086000B2FE06C004C086789070009709F0A39489
:100870008B2C9924B3FC14C0B0FE0FC0AF1428F425
:10088000E72CEF0CEA18AF2C08C0E72C06C080E27A
:1008900090E0B6010E942409A394AF14C0F304C0F1
:1008A000AF1410F4FA1801C0FF2484FE0FC080E3D7
:1008B00090E0B6010E94240982FE1FC081FE03C0A1
:1008C00088E590E010C088E790E00DC0C40186780C
:1008D0009070009791F081FC02C080E201C08BE231
:1008E000B7FC8DE290E0B6010E94240906C080E3C7
:1008F00090E0B6010E942409EA947E14C0F37A9431
:10090000F201E70DF11D808190E0B6010E942409FB
:100910007720A9F706C080E290E0B6010E94240982
:10092000FA94FF20C1F737CEF6012681378102C045
:100930002FEF3FEFC9012C96E2E10C94E80920FD6E
:1009400009C0FC0123FD05C022FF02C0738362833E
:10095000518340830895EF92FF920F931F9344FDBC
:1009600010C046FD10C0DB01FC01AA0FBB1FEE1F2B
:10097000FF1F1094D1F76A0F7B1F8E1F9F1F31E05E
:1009800003C033E001C034E0660F771F881F991F52
:100990003150D1F77B018C01E20EF11C011D111DBC
:1009A000A8019701B701CA011F910F91FF90EF9025
:1009B0000895EF92FF920F931F93CF93DF938C01D3
:1009C000C8010E94E208EC0197FD09C00E94B2082C
:1009D0000097B1F77E01CE01B8010E945009CE0107
:1009E000CDB7DEB7E6E00C94F4098F929F92AF92F8
:1009F000BF92DF92EF92FF920F931F93DF93CF93FB
:100A00000F92CDB7DEB74C01D62E5A01122F0E949D
:100A1000E2088B3219F08D3249F41068DA9409F447
:100A20006CC0C4010E94E20897FD67C0312F3D7F72
:100A3000232F2073F1F48033E1F4DA9409F448C0F1
:100A4000C40139830E94E208398197FD41C03260B8
:100A5000883711F0883559F43064DA94C9F1C4014B
:100A600039830E94E208398197FF03C031C036FF05
:100A70003061EE24FF248701282F2053283090F086
:100A800034FD09C02A3070F036FF05C02F7D422F9B
:100A90004151463030F0B40139830E945009398108
:100AA00014C02750C801B701432F39830E94AB04FB
:100AB0007B018C0139813260DA9469F0C401398399
:100AC0000E94E208398197FFD7CF31FD04C015C0DD
:100AD000EE24FF24870137FF08C010950095F0949D
:100AE000E094E11CF11C011D111DC501B801A70115
:100AF000232F0E949F0481E001C080E00F90CF91DE
:100B0000DF911F910F91FF90EF90DF90BF90AF901A
:100B10009F908F900895A1E2B0E0E1E9F5E00C9498
:100B2000D0096C018A0179019E012F5F3F4F80E25D
:100B3000F90111928A95E9F7F601838080E090E04F
:100B4000BB24992470E0A1E0B0E0F70183FCA590FC
:100B500083FEA1907F01AA2009F47FC0FA2DFE3503
:100B600011F4009751F1472F50E04817590744F40A
:100B70004A2D4D3551F14D3219F4992001F103C040
:100B8000992009F4BA2C4A2D469546954695F901C7
:100B9000E40FF11D4A2D47703D0102C0660C771C21
:100BA0004A95E2F7908096289082AB1459F0AB14E6
:100BB00010F4A394E8CFAA94E6CF71E004C099247E
:100BC000939401C099240196C0CF992019F08E8189
:100BD00080628E83772351F0CE018196FE0131969B
:100BE000208120952193E817F907D1F7BB24B3940E
:100BF0004E010894811C911C01C0BB24C60169A34D
:100C00000E94E20869A197FD20C0282F269526950D
:100C10002695F401E20FF11D208130E0AC01477010
:100C2000507002C0359527954A95E2F720FD04C023
:100C3000B6010E94500909C00115110519F0F8010B
:100C400081938F016150C9F602C0BB2031F40115B8
:100C5000110529F0F801108202C0EE24FF24C7011B
:100C6000A196EEE00C94EC094F925F926F927F9206
:100C70009F92AF92BF92CF92DF92EF92FF920F932B
:100C80001F93DF93CF930F92CDB7DEB77C016B013B
:100C90003A01FC011782168200E0E9C0812F90E042
:100CA0000E94B208009721F0C7010E94D904DFC05A
:100CB000153241F4F601A3FC3591A3FE31916F0189
:100CC000353261F4C7010E94E20897FDDCC01817B5
:100CD00009F4CDC0B7010E945009D7C03A3239F4A7
:100CE000A3FC3591A3FE31916F0111E001C010E02A
:100CF00099240FC01260692D70E080E090E040E21E
:100D00000E94AB04962EF601A3FC3591A3FE31910F
:100D10006F01232F20532A3068F311FF03C099205D
:100D200019F4B3C099249A94383619F03C3689F4F2
:100D300009C0F601A3FC3591A3FE31916F0138364D
:100D400041F418601460F601A3FC3591A3FE3191C3
:100D50006F01332309F499C088E690E0632F70E0B7
:100D600039830E94BA083981009709F48EC0812F17
:100D700010FD08C0F3014080518042E050E0640E55
:100D8000751E02C0442455243E3651F4F7014681B5
:100D9000578160E070E0C201212F0E949F0467C06C
:100DA000333691F481FD02C099249394C7010E94C7
:100DB000E20897FD68C04114510419F0F2018193D3
:100DC0002F019A9499F751C03B3559F4C701692D09
:100DD000A20196010E948B056C01009709F045C0A5
:100DE0003FC0C70139830E94D904398197FD4BC0A8
:100DF0003F3659F1303728F4343629F1393639F590
:100E000027C0333719F0353711F51DC0C7010E94CF
:100E1000E2085C0197FD11C00E94B208009729F01A
:100E2000C501B7010E94500908C04114510419F0CE
:100E3000F201A1922F019A9449F741145104A9F0AB
:100E4000F201108212C0106203C0106101C0106470
:100E5000C701692DA201212F0E94F504882329F4DE
:100E6000F7018381807379F410C010FF0F5FF701E1
:100E7000A380F601A3FC1591A3FE11916F0111232C
:100E800009F00CCF02C0002311F010E002C00FEFF8
:100E90001FEFC8010F90CF91DF911F910F91FF902D
:100EA000EF90DF90CF90BF90AF909F907F906F902A
:100EB0005F904F900895EF92FF920F931F93CF93FF
:100EC000DF93689F8001699F100D789F100D11249A
:100ED000C8010E947F07E82EE7017E01F92EE70195
:100EE000209731F08E2D60E070E0A8010E94D008BC
:100EF0007E01CE01CDB7DEB7E6E00C94F409CF93C6
:100F0000DF938230910510F482E090E0E0913602A8
:100F1000F091370240E050E020E030E026C06081F0
:100F2000718168177907E0F06817790781F4828189
:100F300093812115310531F0D90113969C938E933D
:100F400012972BC0909337028093360226C041152A
:100F5000510519F06417750718F4AB01E901DF01B9
:100F60009F0172816381E72FF62F3097C1F64115FB
:100F7000510501F1481B590B4430510580F412967C
:100F80008D919C911397209719F09B838A8304C0BD
:100F90009093370280933602FD01329646C0FD01E0
:100FA000E40FF51F819391934250504011965C934A
:100FB0004E933BC02091340230913502211531050A
:100FC00041F420911701309118013093350220939C
:100FD00034022091190130911A012115310541F493
:100FE0002DB73EB74091150150911601241B350BCA
:100FF000E0913402F0913502E217F307A0F42E1BC2
:101000003F0B2817390778F0AC014E5F5F4F24176C
:10101000350748F04E0F5F1F50933502409334025E
:101020008193919302C0E0E0F0E0CF01DF91CF9196
:101030000895CF93DF93009709F491C0FC01329794
:101040001382128260913602709137026115710528
:1010500081F420813181280F391F809134029091D1
:1010600035028217930799F5F0933502E093340225
:1010700076C0DB0180E090E002C0CD01D901AE175F
:10108000BF0748F412962D913C9113972115310515
:10109000A1F7CD0121C0B383A283EF0149915991FA
:1010A0009E01240F351FA217B30779F42D913C91AF
:1010B0001197240F351F2E5F3F4F318320831296E7
:1010C0002D913C91139733832283009729F4F09359
:1010D0003702E093360243C0DC011396FC93EE9393
:1010E00012974D915D91A40FB51FEA17FB0769F4A4
:1010F00020813181240F351F2E5F3F4FEC01398352
:101100002883228133813B832A83E0E0F0E002C020
:10111000FB01BC01DB0112968D919C911397009706
:10112000B9F79B012E5F3F4F8D919C911197820FD4
:10113000931F40913402509135024817590779F4B2
:10114000309729F4109237021092360202C01382AF
:101150001282225030403093350220933402DF91C6
:10116000CF910895911115C1803219F089508550A1
:10117000D0F70895FC010590061621F00020D9F75C
:10118000C00108953197CF010895FC010590615089
:1011900070400110D8F7809590958E0F9F1F08958D
:1011A000DC0101C06D9341505040E0F70895FC010F
:1011B0006150704001900110D8F7809590958E0F86
:1011C0009F1F0895CF93DF93EC013B8130FF36C022
:1011D00036FF09C03F7B3B838E819F8101969F83B1
:1011E0008E832A8129C032FF0FC0E881F981808176
:1011F000992787FD9095009719F430623B831EC0B4
:101200003196F983E88311C0EA85FB85CE01099503
:1012100097FF0BC02B813FEF8F3F930711F480E1C5
:1012200001C080E2822B8B8309C02E813F812F5F1A
:101230003F4F3F832E83282F30E002C02FEF3FEF38
:10124000C901DF91CF9108950F931F93CF93DF933F
:101250008C01EB018B8181FF1BC082FF0DC02E81B1
:101260003F818C819D812817390764F4E881F981D9
:101270000193F983E88306C0E885F985802F0995F5
:10128000009731F48E819F8101969F838E8302C0E7
:101290000FEF1FEFC801DF91CF911F910F910895BC
:1012A000FB01238120FF13C026FD11C03FEF8F3FBC
:1012B000930769F0828320642F7D23832681378101
:1012C0002150304037832683282F30E002C02FEF93
:1012D0003FEFC9010895FA01AA27283051F12031C2
:1012E00081F1E8946F936E7F6E5F7F4F8F4F9F4FBA
:1012F000AF4FB1E03ED0B4E03CD0670F781F891FFC
:101300009A1FA11D680F791F8A1F911DA11D6A0FC9
:10131000711D811D911DA11D20D009F468943F917C
:101320002AE0269F11243019305D3193DEF6CF017B
:101330000895462F4770405D4193B3E00FD0C9F741
:10134000F6CF462F4F70405D4A3318F0495D31FDAE
:101350004052419302D0A9F7EACFB4E0A695979501
:10136000879577956795BA95C9F7009761057105D7
:1013700008959B01AC010A2E069457954795379521
:101380002795BA95C9F7620F731F841F951FA01D7B
:1013900008959927882708952F923F924F925F9240
:1013A0006F927F928F929F92AF92BF92CF92DF9275
:1013B000EF92FF920F931F93CF93DF93CDB7DEB7DA
:1013C000CA1BDB0B0FB6F894DEBF0FBECDBF09946E
:1013D0002A88398848885F846E847D848C849B84C5
:1013E000AA84B984C884DF80EE80FD800C811B81D3
:1013F000AA81B981CE0FD11D0FB6F894DEBF0FBE02
:0A140000CDBFED010895F894FFCF71
:10140A00256300596F757220636861722077617372
:0C141A002025630A0020003802000000BA
:00000001FF
